:020000040800F2
:1000000000040020E1020008219F0008A1940008DC
:10001000199F00087910000879C20008000000004C
:10002000000000000000000000000000B1A6000871
:10003000811000080000000009A1000811A70008B5
:10004000FF020008FF020008FF020008FF0200088C
:10005000FF020008FF020008FF020008FF0200087C
:10006000FF020008FF020008FF020008FF0200086C
:10007000FF020008FF020008FF020008FF0200085C
:10008000FF020008FF02000869100008FF020008D4
:10009000FF020008FF020008FF020008FF0200083C
:1000A000FF020008FF020008FF020008FF0200082C
:1000B000FF020008FF020008FF020008FF0200081C
:1000C000FF020008FF020008FF020008FF0200080C
:1000D000FF020008FF020008FF020008FF020008FC
:1000E000FF020008FF02000800000000FF020008F5
:1000F00051A90008FF020008FF020008FF020008E3
:10010000FF020008FF020008FF020008FF020008CB
:10011000FF020008FF020008FF020008FF020008BB
:10012000FF020008FF020008FF020008FF020008AB
:10013000FF020008FF020008FF020008FF0200089B
:1001400000000000000000000000000000000000AF
:10015000FF020008FF020008FF020008FF0200087B
:10016000FF020008FF020008FF020008FF0200086B
:10017000FF020008FF020008FF0200080000000064
:10018000FF020008FF020008FF020008FF0200084B
:10019000FF020008FF020008FF020008FF0200083B
:1001A000FF020008FF020008FF0200080000000034
:1001B000FF020008FF020008FF020008FF0200081B
:1001C000FF020008FF02000800000000000000001D
:1001D0000000000000000000FF0200080000000016
:1001E000000000000000000000000000000000000F
:1001F0000000000000000000FF020008FF020008ED
:10020000FF020008FF02000800000000FF020008D3
:10021000FF020008FF020008FF020008FF020008BA
:10022000FF02000800000000FF02000800000000BC
:10023000FF020008FF02000800000000FF020008A3
:10024000FF020008FF020008FF020008FF0200088A
:10025000FF020008FF020008FF020008FF0200087A
:10026000FF020008FF020008FF020008FF0200086A
:10027000FF020008FF020008FF0200080000000063
:10028000FF020008FF020008FF020008FF0200084A
:1002900000000000FF020008FF020008000000004C
:1002A00000000000FF020008FF020008FF02000833
:1002B000FF020008FF020008FF020008FF0200081A
:1002C000FF020008FF020008FF020008DFF80CD060
:1002D00000F04CFA0048004751C900080004002013
:1002E000074880470748804707480047FEE7FEE782
:1002F000FEE7FEE7FEE7FEE7FEE7FEE7FEE7FEE7D6
:1003000099100008E9A70008CD0200082DE9F05F68
:100310000546002092469B46884606468146402474
:100320001BE0284641464746224600F057F8534610
:100330005A46C01A914110D311461846224600F081
:100340003EF82D1A67EB01084F4622460120002196
:1003500000F035F817EB00094E41201EA4F101040E
:10036000DFDC484631462A464346BDE8F09FD2B21C
:1003700001E000F8012B491EFBD270470022F6E78E
:1003800010B513460A4604461946FFF7F0FF20460B
:1003900010BD30B50B46014600202022012409E0A3
:1003A00021FA02F59D4205D303FA02F5491B04FA2E
:1003B00002F52844151EA2F10102F1DC30BD202A0D
:1003C00004DB203A00FA02F1002070479140C2F1AC
:1003D000200320FA03F3194390407047202A04DBDE
:1003E000203A21FA02F00021704721FA02F3D040AE
:1003F000C2F1200291400843194670472DE9FE4F93
:10040000804681EA0300C00F0C46009021F00041B5
:1004100023F00045B8EB0200A94105D24046214631
:1004200090461C460B46024623F00040104347D03E
:10043000270DC7F30A00C3F30A510290401A019036
:1004400040286BDAC3F3130040F4801B00989246F7
:1004500020B10023D2EB030A63EB0B0B0198594642
:10046000C0F140025046FFF7AAFF06460D4650462F
:100470005946019A00F08CF910EB08006141002404
:1004800087EA115284EAE7731A4340D0009A62B3B4
:10049000019A012A4FEA075215DC001B61EB0201A9
:1004A0004FF0004202EA0752CDE90042001C41F53C
:1004B000801132462B4600F08CF903B0BDE8F08F76
:1004C00040462146F9E7001B61EB0201001C41F5A3
:1004D000801300185B412018A2F5001747EB0301B9
:1004E00040EAD570B6196D4111E06D084FEA360645
:1004F00045EAC0754FEA0752001B61EB0201001C80
:1005000041F5801149084FEA300000195141324647
:100510002B4603B0BDE8F04F00F04CB90098012223
:1005200040000023D0EB020263EBE0730098214609
:100530004FEAE074B8EB000061EB0401E9E783F0F7
:1005400000435BE781F0004158E72DE9FE4F81EA67
:10055000030404F0004421F0004100944FF0000B2C
:1005600023F0004350EA01045ED052EA03045BD05A
:10057000C3F30A54C1F30A552C44A4F2F334019492
:10058000A0FB0254C1F3130141F48011C3F3130320
:1005900043F4801301FB024400FB034E840A970AD4
:1005A00044EA815447EA8357A4FB076802958D0A01
:1005B00005FB07854FEA932C04FB0C542705029D8D
:1005C0004FEA065847EA1637B5EB08056EEB070CFD
:1005D000870E920E47EA811742EA8312A7FB0201B7
:1005E000B6EB0B0164EB00042B0D43EA0C335E18F1
:1005F00044EB1C50DA465146E7FB0201C5F31304F5
:100600004FEA0B3343EA14534FEA0432019C43EAA6
:100610000603A4F10C040294009CCDE900B400F0A0
:10062000D8F803B0BDE8F08F00200146F9E72DE9C6
:10063000F04D81EA030404F0004B21F0004514461C
:100640004FF0000A23F0004150EA050220D054EA9E
:1006500001021DD0C5F30A570246C5F31303C1F3C7
:100660001300C1F30A5640F4801543F48013A7EB3E
:100670000608101BD64608F2FD3873EB050002D3BE
:1006800008F1010801E092185B41B8F1000F03DAAC
:1006900000200146BDE8F08D00204FF48011064691
:1006A00084460EE0171B73EB050705D3121B63EBA3
:1006B000050306434CEA010C49084FEA3000921842
:1006C0005B4150EA0107EDD152EA030012D082EA01
:1006D000040083EA0501084305D0101BAB4106D294
:1006E0000122002306E000224FF0004302E06FF0F9
:1006F000010253101AEB06004CEB085110EB0A00F4
:1007000041EB0B01BDE8F04D00F054B8C1F30A52C3
:10071000C1F3130140F2FF3341F480119A4202DA2F
:1007200000200146704740F233439A42A2F233421E
:1007300002DC5242FFF752BEFFF741BE30B5041E45
:1007400071F1000404DB4FF00044404264EB01010E
:10075000141E73F1000405DB1C464FF000435242A7
:1007600063EB0403994208BF904230BD064C074D2D
:1007700006E0E06840F0010394E807009847103471
:10078000AC42F6D3FFF7A6FD3CD800086CD80008B1
:10079000202A06DBCB17203A41FA02F043EAE07345
:1007A00006E041FA02F3D040C2F120029140084332
:1007B0001946704710B5141E73F1000408DA401C86
:1007C00041F1000192185B411A4301D120F0010070
:1007D00010BD2DE9F04D92469B4611B1B1FA81F260
:1007E00002E0B0FA80F220329046FFF7E8FD0446BE
:1007F0000F4640EA0A0041EA0B0153465A460843B5
:1008000013D0114653EA010019D0C8F140025046F6
:10081000FFF7E4FD05460E46504659464246FFF7AF
:10082000CEFD084305D0012004E020463946BDE84E
:10083000F08D0020054346EAE0762C4337430A98C2
:100840006305E40AA0EB08000022FD0A44EA4754CD
:100850000A3002D500200146E9E701051019694177
:10086000DDE9084500196941BDE8F04DA2E7000047
:1008700080B582B0002000F01BF947F6FF71401AE6
:1008800000EE100AB8EEC00A9FED0D1A20EE010A24
:100890009FED0C1A80EE010A40F21800C2F20040EF
:1008A000019080ED000A90ED000AD0ED020A6FF091
:1008B00003000CF065F8019880ED010A02B080BDDC
:1008C000DB0F494000FEFF4680B582B08DF807007F
:1008D0009DF8070048B9FFE70020C5F602004FF475
:1008E0000061002203F07CF800E0FFE7022000F046
:1008F0009BF902B080BD000080B584B040F200409A
:10090000C5F60200019080210291002203F068F8F0
:100910000220039000F088F901980299012203F067
:100920005FF8039800F080F904B080BD000000007B
:1009300080B584B040F20040C5F6020001908021ED
:100940000291012203F04CF80220039000F06CF9B0
:1009500001980299002203F043F8039800F064F92B
:1009600004B080BD0000000080B584B00020C5F652
:1009700002000290082100910122039203F030F856
:100980000298039A114603F02BF8039802F030FE08
:10099000009902980022019203F022F8502002F000
:1009A00027FE019A0298039903F01AF8039802F0BF
:1009B0001FFE0298039A114603F012F804B080BD9E
:1009C00080B582B000F040F9FFF7CEFFFFF794FF4B
:1009D000022000F015F800200190FFF775FF91202C
:1009E000202100F001F98820012100F0FDF88A2083
:1009F0007F2100F0F9F8019800F002F802B080BD04
:100A000080B584B08DF80F009DF80F00B0B9FFE7F6
:100A10000020C5F602004FF400410022029202F0CD
:100A2000DFFF029A40F20040C5F602004FF4007169
:100A300002F0D6FF022000F0F7F836E09DF80F0034
:100A4000012815D1FFE70020C5F602004FF4004150
:100A5000002202F0C5FF40F20040C5F602004FF44C
:100A60000071012202F0BCFF022000F0DDF81BE063
:100A70009DF80F00022816D1FFE70020C5F60200FE
:100A80004FF400410122019202F0AAFF019A40F2C4
:100A90000040C5F602004FF4007102F0A1FF0220F1
:100AA00000F0C2F8FFE7FFE7FFE704B080BD0000F9
:100AB00080B582B08DF807009DF80700FFF704FFAE
:100AC00000F076F8FFF734FF09F096FD0002009081
:100AD00009F092FD0146009808440090FFF70CFFD2
:100AE000009802B080BD000040F21800C2F2004041
:100AF0004168416190ED050A90ED061A30EE410A19
:100B000080ED070A90ED070A9FED251AB4EE410A21
:100B1000F1EE10FA0DDDFFE740F21800C2F20040DE
:100B200090ED070A9FED211A30EE010A80ED070AC9
:100B30001CE040F21800C2F2004090ED070A9FED61
:100B4000191AB4EE410AF1EE10FA0DDAFFE740F29D
:100B50001800C2F2004090ED070A9FED131A30EE24
:100B6000010A80ED070A00E0FFE7FFE740F2180105
:100B7000C2F2004191ED070AB7EEC00A9FED061BD5
:100B800080EE010BB7EEC00B81ED040A4869886165
:100B9000704700BF00BF00BF2D431CEBE2361A3F79
:100BA000DB0F4940DB0F49C0DB0FC940DB0FC9C079
:100BB00080B582B00020C5F60200009001220192AB
:100BC000114602F00DFF00980199002202F008FF83
:100BD0000A2000F029F80098019A114602F000FF5F
:100BE00002B080BD0000000080B582B08DF8070023
:100BF0008DF806100220FFF703FFFFF799FE9DF81E
:100C0000070009F041FDFFF777FE032000F00CF824
:100C1000FFF78EFE9DF8060009F036FDFFF76CFE2B
:100C200002B080BD0000000082B0019001980090E9
:100C3000FFE7009820B1FFE7009801380090F8E73F
:100C400002B070470000000040F21801C2F20041FB
:100C500000200860486043F23332CBF6B3728A60FA
:100C600088818873C873086148618861C8610862B7
:100C7000704700000000000080B584B00390039826
:100C8000006842F20001C4F20201884209D0FFE785
:100C90000398006842F20011C4F20201884209D1AF
:100CA000FFE742F20830C4F20200006810F4403F4F
:100CB00009D129E046F20830C5F60200006810F4B8
:100CC000403F21D0FFE705F00BFC029003984068FD
:100CD0000190B0F5803F0AD0FFE70198B0F5003FE2
:100CE00005D0FFE70198B0F5403F07D00AE0039830
:100CF000C1880298B0FBF1F0029004E002988008ED
:100D0000029000E0FFE75FE04FF40020002103F0D5
:100D100037FC0290039840680090B0F5802F32D0E5
:100D2000FFE70098B0F5002F2DD0FFE70098B0F551
:100D3000402F28D0FFE70098B0F5801F23D0FFE7B1
:100D40000098B0F5A01F1ED0FFE70098B0F5C01FB7
:100D500019D0FFE70098B0F5E01F1FD0FFE700981B
:100D6000B0F5001F1ED0FFE70098B0F5101F1DD092
:100D7000FFE70098B0F5201F1CD0FFE70098B0F502
:100D8000301F1BD01EE0039841686FF0010000EA9D
:100D900051410298B0FBF1F0029014E00298000972
:100DA000029010E00298400902900CE0029880093D
:100DB000029008E00298C009029004E00298000A3C
:100DC000029000E0FFE7FFE70298400802900298D7
:100DD00045F61061C0F25F01884209D8FFE7039829
:100DE0000068806820F440700399096888602EE0EC
:100DF00002984BF62041C0F2BE0188420AD8FFE7B4
:100E0000039800688068012161F30920039909684B
:100E100088601BE0029847F64001C0F27D118842CD
:100E20000AD8FFE7039800688068022161F309206F
:100E300003990968886008E003980068806840F4B6
:100E40004070039909688860FFE7FFE7FFE704B097
:100E500080BD00000000000080B584B002900298C0
:100E6000006808F0E1FB00900298006808F0E4FBDD
:100E700000284BD0FFE70098002847D1FFE70298F1
:100E80000068806800F00D00012809D1FFE7029892
:100E9000006808F009FB02980168032008600DE073
:100EA0000299086E40F0100008660299486E40F002
:100EB0000100486601208DF80F002BE002F0A8FD2C
:100EC0000190FFE7029800688068C007E8B1FFE77B
:100ED00002F09EFD0199401A032815D3FFE70298FE
:100EE00000688068C00770B1FFE70299086E40F0A3
:100EF000100008660299486E40F001004866012023
:100F00008DF80F0006E0FFE7DCE7FFE700208DF833
:100F10000F00FFE79DF80F0004B080BD0000000047
:100F200080B586B004900498006808F085FB00281E
:100F300040F09280FFE70498006880683F21C8F283
:100F4000000108420ED0FFE70499086E40F010003F
:100F500008660499486E40F00100486601208DF84B
:100F600017007DE00498006808F0BAFA02F050FD1E
:100F7000039004980168012042F20002C4F20202C8
:100F8000914201900CD0FFE7049800684DF6007183
:100F9000CBF6FD710844B0FA80F040090190FFE7FC
:100FA0000198C10746F20030C5F6020000291CBFB7
:100FB00042F20030C4F2020008F0C2FA0290049833
:100FC000006842F20011C4F20201884206D1FFE734
:100FD00042F20000C4F20200009003E004980068AE
:100FE0000090FFE7009804990968884203D0FFE762
:100FF000029880BBFFE7FFE7049800680068C0071D
:1010000040BBFFE70498006808F016FB28B9FFE72B
:101010000498006808F064FAFFE702F0F9FC03990D
:10102000401A032815D3FFE7049800680068C0073A
:1010300070B9FFE70499086E40F010000866049943
:10104000486E40F00100486601208DF8170007E067
:10105000FFE7D1E7FFE7FFE700208DF81700FFE784
:101060009DF8170006B080BD80B540F20C10C2F2AA
:10107000004001F031FD80BDFFE7FEE70000000009
:10108000704700000000000081B0EFF3108072B6DE
:101090000090FFE7FEE7000044F60C01C5F60201F0
:1010A000086840F002000860FFE744F60400C5F657
:1010B000020000688004002801D4FFE7F5E77047CC
:1010C00080B586B004900391029200200090FFE763
:1010D000049890F85C00012804D1FFE702208DF805
:1010E00017005BE00499012081F85C00FFE7FFE74F
:1010F0000498FFF7B1FE8DF807009DF80700E0BBEC
:10110000FFE70498006E40F0020020F48850049934
:101110000866049800680399029A08F025FCFFE726
:101120000498006808F070FAF0B1FFE70098013009
:10113000009000984FF60001C2F2C351884212D3CA
:10114000FFE70498006E40F0100020F002000499C0
:101150000866FFE70499002081F85C00FFE70120A2
:101160008DF817001AE0DBE70498006E40F00100EC
:1011700020F002000499086605E00499086E40F02A
:1011800010000866FFE7FFE70499002081F85C0083
:10119000FFE79DF807008DF81700FFE79DF817009F
:1011A00006B080BD0000000080B584B003900398B5
:1011B000006808F061FA01900398006808F0F0F9FF
:1011C0000090019868B9FFE7009850B9FFE70398CD
:1011D00000684FF0004108F0F7F900208DF80B008F
:1011E00003E001208DF80B00FFE79DF80B0004B031
:1011F00080BD00000000000081B0009001B0704789
:1012000080B5ECB04890479100208DF81B014190CB
:1012100040904898006846F20001C5F602018842F5
:1012200001D1FFE700E0FFE74898006908B1FFE758
:10123000FFE7489890F84400012801D1FFE700E05B
:10124000FFE74898006846F20001C5F602018842AF
:1012500001D1FFE7FFE74798C0680021C4F2FF71A2
:10126000884201D0FFE71EE04898006842F2000182
:10127000C4F20201884201D1FFE7FFE74898006805
:1012800042F20011C4F20201884201D1FFE7FFE7F8
:101290004898006846F20001C5F60201884201D173
:1012A000FFE7FFE7FFE7FFE7489890F85C000128B9
:1012B00005D1FFE702208DF8270101F06DB84899AC
:1012C000012081F85C00FFE7FFE74898006928B13A
:1012D000FFE74798406A01282FD1FFE74798406809
:1012E000092829D1FFE74798C06A68B1FFE7479905
:1012F0000A68C86A096B02F0F84200F07C0040EA14
:1013000052400843409006E04798006800F0F840DB
:10131000400C4090FFE748980068C06C44F2000120
:10132000C0F2104108404099084348990968C864D0
:10133000409848998866FFE747E04898C06EE0B952
:10134000FFE74798406A4899C86648990020886630
:101350004798C06A58B1FFE74799486ACA6A096B5B
:10136000013802F07C0210430843409004E04798A3
:10137000406A01384090FFE7FFE7479908684968ED
:10138000C0F3846001F01F0100FA01F140980843A6
:1013900040904899C86E0138C866409A4899886E4E
:1013A000104388664898C06E70B9FFE74898006897
:1013B000C06C44F20001C0F210410840489A116824
:1013C000926E1043C864FFE7FFE74898006808F092
:1013D000E7F8002863D1FFE74798C07800060028A7
:1013E00037D4FFE74898006846F20001C5F60201CD
:1013F00088422DD0FFE747980068000330B9FFE727
:1014000047980068C0F384603F9015E047980068F3
:1014100090FAA0F04A904A9820B9FFE720208DF872
:101420002F0105E04A98B0FA80F08DF82F01FFE710
:101430009DF82F013F90FFE73F9800F01F0101202A
:1014400000FA01F248980168C8691043C861FFE7D3
:10145000FFE7479890F8290090B9FFE7489800689F
:10146000C06820F44010479991F8282091F82A107C
:10147000490541EA0251084348990968C8600DE0EE
:1014800048980068C06820F44010479991F82A10E5
:1014900040EA415048990968C860FFE7FFE748986B
:1014A000006808F0E9F843904898006808F078F878
:1014B00042904398002840F0F083FFE742980028CC
:1014C00040F0EB83FFE74798C06A20B1FFE74798F9
:1014D000006BA8B9FFE7479890F82900012807D1C9
:1014E000FFE748980168C86840F00070C86006E0EF
:1014F00048980168C86820F00070C860FFE716E0EF
:10150000479890F82900012809D1FFE74899086E0B
:1015100040F02000086601208DF81B0106E0489885
:101520000168C86820F00070C860FFE7FFE74798CF
:1015300090F8340001283DD1FFE74898006846F252
:101540000001C5F60201884201D1FFE700E0FFE794
:101550004898006846F20001C5F60201884218D09A
:10156000FFE74898006800694FF61D61CFF600411B
:1015700001404798836BC26B0020CFF6FF7000EBF1
:1015800003401043084340F002004899096808618D
:101590000FE048980068006920F4FF71479A906B4B
:1015A000D26B1043084340F0020048990968086173
:1015B000FFE706E048980168086920F0020008612A
:1015C000FFE748980068479A1168926808F0A0F809
:1015D0004898006846F20001C5F6020188420BD126
:1015E000FFE74798406948990968C96801F0180100
:1015F00089088840459038E041F20000C5F6004077
:10160000006800F07040B0F1805F0BD1FFE74798B1
:10161000406948990968C96801F01C014908884077
:101620003E901FE048980068C068C00600280BD4B0
:10163000FFE74798406948990968C96801F01C01AB
:10164000490888403D900AE04798406948990968F0
:10165000C96801F01001490888403D90FFE73D98B6
:101660003E90FFE73E984590FFE7479800690428C1
:1016700035D0FFE74898006847990A680969459B93
:1016800008F0BAF84898006846F20001C5F6020171
:10169000884215D1FFE748980068479A1169D269D6
:1016A00008F0FAF848980068479A116992F82020E3
:1016B000013AB2FA82F25209520608F0CDF80DE072
:1016C00048980068479A116992F82120013AB2FAC5
:1016D00082F25209D20708F0FFF8FFE7DCE24898EF
:1016E000006846F20001C5F60201884240F06681BA
:1016F000FFE748980068002107F032FF000348B96F
:10170000FFE748980068002107F02AFFC0F38460D3
:101710003C9018E048980068002107F021FF90FAFB
:10172000A0F04C904C9820B9FFE720208DF83701AD
:1017300005E04C98B0FA80F08DF83701FFE79DF88E
:1017400037013C90FFE73C983B90479800680003C6
:1017500030B9FFE747980068C0F384603A9015E01D
:101760004798006890FAA0F04E904E9820B9FFE795
:1017700020208DF83F0105E04E98B0FA80F08DF8FA
:101780003F01FFE79DF83F013A90FFE73B983A9908
:10179000884207D1FFE7489800680022114608F008
:1017A000BBF8FFE748980068012107F0D9FE000365
:1017B00048B9FFE748980068012107F0D1FEC0F35F
:1017C0008460399018E048980068012107F0C8FE4D
:1017D00090FAA0F05090509820B9FFE720208DF8A3
:1017E000470105E05098B0FA80F08DF84701FFE717
:1017F0009DF847013990FFE739983890479800687D
:10180000000330B9FFE747980068C0F38460379061
:1018100015E04798006890FAA0F05290529820B9CD
:10182000FFE720208DF84F0105E05298B0FA80F0D4
:101830008DF84F01FFE79DF84F013790FFE738988B
:101840003799884207D1FFE74898006801210022B4
:1018500008F062F8FFE748980068022107F080FE70
:10186000000348B9FFE748980068022107F078FEB6
:10187000C0F38460369018E048980068022107F0B1
:101880006FFE90FAA0F05490549820B9FFE7202002
:101890008DF8570105E05498B0FA80F08DF85701A3
:1018A000FFE79DF857013690FFE736983590479847
:1018B0000068000330B9FFE747980068C0F3846010
:1018C000349015E04798006890FAA0F0569056982A
:1018D00020B9FFE720208DF85F0105E05698B0FAA7
:1018E00080F08DF85F01FFE79DF85F013490FFE71E
:1018F00035983499884207D1FFE74898006802215B
:10190000002208F009F8FFE748980068032107F073
:1019100027FE000348B9FFE748980068032107F055
:101920001FFEC0F38460339018E0489800680321DC
:1019300007F016FE90FAA0F05890589820B9FFE7EB
:1019400020208DF8670105E05898B0FA80F08DF8F6
:101950006701FFE79DF867013390FFE73398329006
:1019600047980068000330B9FFE747980068C0F364
:101970008460319015E04798006890FAA0F05A9082
:101980005A9820B9FFE720208DF86F0105E05A989A
:10199000B0FA80F08DF86F01FFE79DF86F0131908C
:1019A000FFE732983199884207D1FFE748980068ED
:1019B0000321002207F0B0FFFFE76CE148980068C0
:1019C000002107F0CDFD000348B9FFE74898006803
:1019D000002107F0C5FDC0F38460309018E04898FE
:1019E0000068002107F0BCFD90FAA0F05C905C98C4
:1019F00020B9FFE720208DF8770105E05C98B0FA68
:101A000080F08DF87701FFE79DF877013090FFE7D0
:101A100030982F9047980068000330B9FFE7479847
:101A20000068C0F384602E9015E04798006890FA33
:101A3000A0F05E905E9820B9FFE720208DF87F012E
:101A400005E05E98B0FA80F08DF87F01FFE79DF821
:101A50007F012E90FFE72F982E99884209D1FFE74A
:101A60004898006847990A680023194607F0C4FEA1
:101A7000FFE748980068012107F072FD000348B9AC
:101A8000FFE748980068012107F06AFDC0F3846011
:101A90002D9018E048980068012107F061FD90FA48
:101AA000A0F06090609820B9FFE720208DF88701B2
:101AB00005E06098B0FA80F08DF88701FFE79DF8A7
:101AC00087012D90FFE72D982C9047980068000320
:101AD00030B9FFE747980068C0F384602B9015E0A9
:101AE0004798006890FAA0F06690669820B9FFE7E2
:101AF00020208DF89F0105E06698B0FA80F08DF8FF
:101B00009F01FFE79DF89F012B90FFE72C982B99F1
:101B1000884209D1FFE74898006847990A6801217F
:101B2000002307F069FEFFE748980068022107F0EC
:101B300017FD000348B9FFE748980068022107F045
:101B40000FFDC0F384602A9018E0489800680221D5
:101B500007F006FD90FAA0F06890689820B9FFE7BA
:101B600020208DF8A70105E06898B0FA80F08DF884
:101B7000A701FFE79DF8A7012A90FFE72A9829907F
:101B800047980068000330B9FFE747980068C0F342
:101B90008460289015E04798006890FAA0F06A9059
:101BA0006A9820B9FFE720208DF8AF0105E06A9818
:101BB000B0FA80F08DF8AF01FFE79DF8AF012890F3
:101BC000FFE729982899884209D1FFE748980068DB
:101BD00047990A680321002307F00EFEFFE74898A3
:101BE0000068032107F0BCFC000348B9FFE74898F0
:101BF0000068032107F0B4FCC0F38460279018E06C
:101C000048980068032107F0ABFC90FAA0F06490BC
:101C1000649820B9FFE720208DF8970105E06498CB
:101C2000B0FA80F08DF89701FFE79DF897012790B3
:101C3000FFE72798269047980068000330B9FFE730
:101C400047980068C0F38460259015E047980068C5
:101C500090FAA0F06290629820B9FFE720208DF8FA
:101C60008F0105E06298B0FA80F08DF88F01FFE7F0
:101C70009DF88F012590FFE726982599884209D184
:101C8000FFE74898006847990A680321002307F096
:101C9000B3FDFFE7FFE7FFE7FFE74898006807F0BD
:101CA000D3FC002840F06D83FFE748980068479A0E
:101CB0001168D26807F048FD4798C0680021C4F257
:101CC000FF71884240F0F981FFE74898006824904E
:101CD00042F20001C4F20201884240F0A480FFE712
:101CE000479800680221C0F23041884203D1FFE7E3
:101CF0000120239094E0479800680421C0F6600119
:101D0000884205D1FFE74020C1F62010229084E0F0
:101D1000479800680821C0F69041884205D1FFE746
:101D20008020C1F65050219074E04798006810213F
:101D3000C1F2C001884206D1FFE740F20010C2F2B2
:101D40008010209063E0479800682021C1F2F041A4
:101D5000884206D1FFE740F20020C2F2B0501F9047
:101D600052E04798006840F20041C2F600218842E4
:101D700006D1FFE740F60000C2F630601E9040E05A
:101D80004798006840F60001C2F63061884206D1EB
:101D9000FFE741F20000C3F260201D902EE047985B
:101DA000006841F20001C3F26021884206D1FFE7DA
:101DB00042F20000C3F290601C901CE0479800685B
:101DC0000021C4F22131884205D1FFE70020C4F28E
:101DD00052701B900CE0479801680022C4F68432D0
:101DE0000020914204BF0020C4F6B8701B90FFE7AA
:101DF0001B981C90FFE71C981D90FFE71D981E90F4
:101E0000FFE71E981F90FFE71F982090FFE720989C
:101E10002190FFE721982290FFE722982390FFE787
:101E200023981A9044E14898006842F20011C4F2E5
:101E30000201884240F09480FFE747980068022141
:101E4000C0F23041884203D1FFE70120199084E0BD
:101E5000479800680421C0F66001884205D1FFE779
:101E60004020C1F62010189074E0479800680821BF
:101E7000C0F69041884205D1FFE78020C1F650505E
:101E8000179064E0479800681021C1F2C0018842B1
:101E900006D1FFE740F20010C2F28010169053E026
:101EA000479800682021C1F2F041884206D1FFE73F
:101EB00040F20020C2F2B050159042E0479800680E
:101EC00040F20041C2F60021884206D1FFE740F609
:101ED0000000C2F63060149030E04798006840F689
:101EE0000001C2F63061884206D1FFE741F20000EE
:101EF000C3F2602013901EE04798006841F2000191
:101F0000C3F26021884206D1FFE742F20000C3F22B
:101F1000906012900CE0479801680022C4F6843269
:101F20000020914204BF0020C4F6B8701290FFE771
:101F300012981390FFE713981490FFE714981590E8
:101F4000FFE715981690FFE716981790FFE7179888
:101F50001890FFE718981990FFE719981190A4E0DE
:101F60004898006846F20001C5F60201884240F038
:101F70009680FFE7479800680221C0F2304188420E
:101F800003D1FFE70120109086E047980068042104
:101F9000C0F66001884205D1FFE74020C1F620105D
:101FA0000F9076E0479800680821C0F6904188427B
:101FB00005D1FFE78020C1F650500E9066E04798AB
:101FC00000681021C1F2C001884206D1FFE740F24B
:101FD0000010C2F280100D9055E047980068202153
:101FE000C1F2F041884206D1FFE740F20020C2F280
:101FF000B0500C9044E04798006840F20041C2F6AF
:102000000021884206D1FFE740F60000C2F63060AA
:102010000B9032E04798006840F60001C2F630614C
:10202000884206D1FFE741F20000C3F260200A9027
:1020300020E04798006842F20001C3F290618842B4
:1020400006D1FFE744F20000C3F6C02009900EE07D
:102050004798016844F20002C3F6C0220020914272
:1020600004BF48F20000C3F6F0600990FFE709984A
:102070000A90FFE70A980B90FFE70B980C90FFE798
:102080000C980D90FFE70D980E90FFE70E980F90BB
:10209000FFE70F981090FFE71098089002E00020EB
:1020A0000890FFE708981190FFE711981A90FFE752
:1020B00024981A9907F0F4FAFFE74798C0780006C9
:1020C000002840F15D81FFE748980168012042F255
:1020D0000002C4F20202914207900CD0FFE7489838
:1020E00000684DF60071CBF6FD710844B0FA80F03F
:1020F00040090790FFE70798C10746F20030C5F690
:10210000020000291CBF42F20030C4F2020042F279
:102110000031C4F20201884212D1FFE742F200000E
:10212000C4F2020007F090FA059042F20010C4F2E7
:10213000020007F089FA014605980843069007E077
:1021400046F20000C5F6020007F07EFA0690FFE7AF
:102150000698002840F00A81FFE7489801680120AE
:1021600042F20002C4F20202914204900CD0FFE756
:10217000489800684DF60071CBF6FD710844B0FA3E
:1021800080F040090490FFE70498C10746F2003050
:10219000C5F6020000291CBF42F20030C4F2020062
:1021A00007F0BEF944904798006840F20001CCF275
:1021B0005271884255D1FFE79DF8120100060028B0
:1021C0004FD4FFE74898006846F20001C5F60201C7
:1021D000884245D1FFE748980168012042F2000299
:1021E000C4F20202914203900CD0FFE748980068C5
:1021F0004DF60071CBF6FD710844B0FA80F040094D
:102200000390FFE70398C10746F20030C5F60200CD
:1022100000291CBF42F20030C4F20200449941F48C
:10222000000107F0D9FA40F20800C2F2004000684D
:102230004FEA901042F66351C0F23E51A0FB0110EC
:102240004FEA90114FF0020000EB41004190FFE790
:10225000419820B1FFE7419801384190F8E7FFE746
:1022600083E0479800680021CCF22131884238D1C0
:10227000FFE79DF81301C00798BBFFE74898006887
:1022800046F20001C5F60201884229D1FFE74898CD
:102290000168012042F20002C4F20202914202905F
:1022A0000CD0FFE7489800684DF60071CBF6FD7141
:1022B0000844B0FA80F040090290FFE70298C10795
:1022C00046F20030C5F6020000291CBF42F2003081
:1022D000C4F20200449941F0807107F07DFAFFE7F3
:1022E00042E0479800680021CCF68431884239D119
:1022F000FFE79DF812014006002833D4FFE7489815
:10230000006846F20001C5F60201884229D1FFE7C4
:1023100048980168012042F20002C4F20202914290
:1023200001900CD0FFE7489800684DF60071CBF69D
:10233000FD710844B0FA80F040090190FFE7019870
:10234000C10746F20030C5F6020000291CBF42F268
:102350000030C4F20200449941F4800107F03CFAD5
:10236000FFE700E0FFE7FFE7FFE708E04899086EB6
:1023700040F02000086601208DF81B01FFE7FFE711
:10238000FFE7FFE74899002081F85C00FFE79DF830
:102390001B018DF82701FFE79DF827016CB080BD78
:1023A00080B58AB00990099840F20C11C2F2004140
:1023B000884240F0AA80FFE740F24800C2F20040A5
:1023C000007F00284ED1FFE740F20C10C2F200401F
:1023D0000168D1F8803040F24002C2F20042116838
:1023E000194411600068D0F8842040F24401C2F220
:1023F000004108681044086040F23C00C2F200400E
:10240000016801310160006814282AD1FFE740F219
:102410003C01C2F200410020086040F24002C2F2DA
:10242000004292ED000AB8EE400AB3EE041A80EEC4
:10243000010A40F2480CC2F2004C8CED020A40F254
:102440004401C2F2004191ED000AB8EE400A80EE6C
:10245000010A8CED030A01238CF81C30106008601F
:10246000FFE751E040F20C11C2F200410868D0F8D9
:10247000802040F24800C2F20040089002600968E3
:10248000D1F88410416009F0DFFF08990A6940F231
:102490006800C2F2004002604A6942608969816056
:1024A00090ED000A20EE000AB7EE001AB4EE410AE1
:1024B000F1EE10FA20DCFFE740F26800C2F20040C3
:1024C00090ED010A20EE000AB7EE001AB4EE410AC0
:1024D000F1EE10FA10DCFFE740F26800C2F20040B3
:1024E00090ED020A20EE000AB7EE001AB4EE410A9F
:1024F000F1EE10FA07DDFFE740F2E821C2F20041F9
:1025000000200870FFE7FFE7FFE7FEF7B1F9FEF7ED
:10251000EBFA40F21800C2F20040059090ED010A7B
:1025200040F2A000C2F20040039040F26801C2F203
:10253000004109F009FF059940F2E420C2F2004091
:10254000026840F2D400C2F20040029002610969C0
:10255000C16007F021FD039940F27400C2F200400F
:102560000190002202610968C16007F015FD019A1F
:1025700002980399126A40F2F823C2F200430693CC
:102580001A60026A40F2A800C2F2004004900261A0
:102590004968C16007F000FD049A05980699126A1F
:1025A0004A6090ED010A40F2EC20C2F20040079030
:1025B00009F08AFF079840F20011C2F200419FED36
:1025C000030A09F0F1FF0AB080BD00BF0000CA4253
:1025D00081B0009001B0704780B588B00690069831
:1025E0000168012042F20002C4F20202914202900C
:1025F0000CD0FFE7069800684DF60071CBF6FD7130
:102600000844B0FA80F040090290FFE70298C10741
:1026100046F20030C5F6020000291CBF42F200302D
:10262000C4F2020006F094FF03900698006806F0DA
:10263000B7FF20B1FFE702208DF81F00E9E0069800
:102640000068C06800F00040049006980068C06C04
:1026500010F4C07F0CD1FFE7049848B9FFE7069952
:10266000086E40F02000086601208DF81F00D0E0C1
:10267000FFE7069890F85C00012804D1FFE70220EC
:102680008DF81F00C5E00699012081F85C00FFE786
:10269000FFE70698FEF744FC8DF817009DF8170039
:1026A000002840F0AA80FFE70698006EC0050028C9
:1026B00006D5FFE70699486E20F00800486603E05B
:1026C000069900204866FFE70698006E40F48050A7
:1026D00042F201018843069908660698006842F2B2
:1026E0000011C4F20201884206D1FFE742F2000065
:1026F000C4F20200019003E0069800680190FFE731
:10270000019806990968884203D0FFE7039830B919
:10271000FFE70699086E20F480100866FFE7069828
:10272000016860200860FFE70699002081F85C00DE
:10273000FFE706980068C0688002002807D5FFE719
:1027400006980168486840F480604860FFE7069892
:10275000406908280DD1FFE706980168486820F015
:102760002000486006980168486840F040004860D2
:102770000CE006980168486820F040004860069820
:102780000168486840F020004860FFE7069800684C
:1027900042F20011C4F20201884206D1FFE742F280
:1027A0000000C4F20200009003E006980068009068
:1027B000FFE700980699096888420BD0FFE7039865
:1027C00040B1FFE70398062804D0FFE703980728E5
:1027D0000CD1FFE70698006806F0D2FE28B9FFE7A3
:1027E0000698006806F000FFFFE705E00699086E0E
:1027F00040F480100866FFE706E0FFE70699002036
:1028000081F85C00FFE7FFE79DF817008DF81F00D7
:10281000FFE79DF81F0008B080BD00000000000029
:1028200081B0009001B0704781B0009001B0704756
:1028300080B5AAB02890279100208DF89B0027989A
:10284000006808B1FFE7FFE7FFE7289890F85C0011
:10285000012804D1FFE702208DF8A7002DE1289977
:10286000012081F85C00FFE7FFE700202190229023
:102870002898006842F20001C4F20201884206D1A1
:10288000FFE742F20010C4F20200099002E00020CB
:102890000990FFE7099878B9FFE72899086E40F09A
:1028A00020000866FFE72899002081F85C00FFE718
:1028B00001208DF8A70000E1099806F0DDFE0890E0
:1028C0002898006806F0D8FE002840F0E280FFE774
:1028D0000898002840F0DD80FFE728980168012073
:1028E00042F20002C4F20202914207900CD0FFE7CC
:1028F000289800684DF60071CBF6FD710844B0FAD7
:1029000080F040090790FFE70798C10746F20030C2
:10291000C5F6020000291CBF42F20030C4F20200DA
:1029200025902798006800285ED0FFE725988068EA
:1029300020F44040279949680843259988602898E1
:102940000168012042F20002C4F2020291420690A4
:102950000CD0FFE7289800684DF60071CBF6FD71AA
:102960000844B0FA80F040090690FFE70698C107D6
:1029700046F20030C5F6020000291CBF42F20030CA
:10298000C4F2020042F20031C4F20201884212D1C4
:10299000FFE742F20000C4F2020006F055FE049088
:1029A00042F20010C4F2020006F04EFE0146049806
:1029B0000843059007E046F20000C5F6020006F065
:1029C00043FE0590FFE7059868B9FFE72598806802
:1029D00040F61F718843279A116892681143084393
:1029E00025998860FFE753E02599886820F44040E6
:1029F000886028980168012042F20002C4F20202B5
:102A0000914203900CD0FFE7289800684DF60071C2
:102A1000CBF6FD710844B0FA80F040090390FFE75F
:102A20000398C10746F20030C5F6020000291CBF1A
:102A300042F20030C4F2020042F20031C4F202015C
:102A4000884212D1FFE742F20000C4F2020006F011
:102A5000FBFD019042F20010C4F2020006F0F4FD0A
:102A6000014601980843029007E046F20000C5F6CF
:102A7000020006F0E9FD0290FFE7029838B9FFE78F
:102A80002599886840F61F7290438860FFE7FFE74A
:102A900008E02899086E40F02000086601208DF8B3
:102AA0009B00FFE7FFE72899002081F85C00FFE723
:102AB0009DF89B008DF8A700FFE79DF8A7002AB0BE
:102AC00080BD00000000000081B0009001B07047A0
:102AD00081B0009001B0704780B590B00F90002099
:102AE0000E900F98006800680D900F98006840687D
:102AF0000C900F980168012042F20002C4F2020219
:102B0000914206900CD0FFE70F9800684DF60071D7
:102B1000CBF6FD710844B0FA80F040090690FFE75B
:102B20000698C10746F20030C5F6020000291CBF16
:102B300042F20030C4F2020006F002FD07909DF858
:102B400034004FEA807000281AD5FFE79DF8300066
:102B50008007002814D5FFE70F98006EC0060028F4
:102B600006D4FFE70F99086E40F400600866FFE79F
:102B70000F98FEF741FB0F98016802200860FFE7FD
:102B80009DF834004007002806D5FFE70C9800F0B8
:102B9000040004280ED0FFE79DF834000007002849
:102BA00040F19F80FFE79DF830000007002840F1CA
:102BB0009880FFE70F98006EC006002806D4FFE754
:102BC0000F99086E40F400700866FFE70F980068E0
:102BD00006F05AFD00287CD0FFE70F98006842F20B
:102BE0000011C4F20201884206D1FFE742F2000060
:102BF000C4F20200059003E00F9800680590FFE71B
:102C000005980F99096888420BD0FFE7079840B1F3
:102C1000FFE70798052804D0FFE70798092805D1A2
:102C2000FFE70F980068C068099018E00F980068E7
:102C300042F20011C4F20201884206D1FFE742F2DB
:102C40000000C4F20200049003E00F9800680490B2
:102C5000FFE7049808900898C0680990FFE7099872
:102C600000F40050B0F5005F32D0FFE70F98006825
:102C70000068000700282AD5FFE70F98006806F0D3
:102C8000F3FCC0B9FFE70F980168486820F00C001A
:102C900048600F99086E20F4807008660F98006EE7
:102CA000C004002806D4FFE70F99086E40F0010029
:102CB0000866FFE70AE00F99086E40F0100008660A
:102CC0000F99486E40F001004866FFE7FFE7FFE715
:102CD000FFE70F98FFF7F8FE0F9801680C200860D7
:102CE000FFE79DF834008006002806D5FFE70C9822
:102CF00000F0200020280ED0FFE79DF834004006A9
:102D0000002840F1B680FFE79DF83000400600281B
:102D100040F1AF80FFE70F98006EC006002806D490
:102D2000FFE70F99086E40F400500866FFE70F9820
:102D3000006806F03DFC0B900F98006806F0A4FCBC
:102D40000A900F98006842F20011C4F20201884212
:102D500006D1FFE742F20000C4F20200039003E054
:102D60000F9800680390FFE703980F99096888425D
:102D70000BD0FFE7079840B1FFE70798062804D07B
:102D8000FFE70798072805D1FFE70F980068C0689C
:102D9000099018E00F98006842F20011C4F2020195
:102DA000884206D1FFE742F20000C4F2020002901E
:102DB00003E00F9800680290FFE7029808900898D7
:102DC000C0680990FFE70B9800284AD0FFE79DF8FC
:102DD0002700800700280AD5FFE70A9800283FD07F
:102DE000FFE79DF825008006002839D4FFE70F98FB
:102DF000006800684006002831D5FFE79DF82600EE
:102E0000800600282AD4FFE70F98006806F0C0FB70
:102E1000C0B9FFE70F980168486820F0600048607B
:102E20000F99086E20F4805008660F98006EC00558
:102E3000002806D4FFE70F99086E40F001000866ED
:102E4000FFE70AE00F99086E40F0100008660F993E
:102E5000486E40F001004866FFE7FFE7FFE7FFE745
:102E6000FFE70F98FFF79CFA0F9801686020086051
:102E7000FFE79DF834000006002813D5FFE79DF812
:102E80003000000600280DD5FFE70F99086E40F4CA
:102E9000803008660F9800F03FFB0F980168802093
:102EA0000860FFE79DF83500C00798B1FFE79DF87F
:102EB0003100C00770B1FFE70F99086E40F4003091
:102EC00008660F98FFF7ACFC0F9801684FF480700C
:102ED0000860FFE79DF835008007002814D5FFE75C
:102EE0009DF83100800700280ED5FFE70F99086E86
:102EF00040F4802008660F98FFF796FC0F98016851
:102F00004FF400700860FFE79DF83400C006002809
:102F10005DD5FFE79DF83000C006002857D5FFE7D4
:102F20000F98C06B18B9FFE701200E9038E00798A2
:102F300058B3FFE70F980168012042F20002C4F283
:102F40000202914201900CD0FFE70F9800684DF605
:102F50000071CBF6FD710844B0FA80F04009019091
:102F6000FFE70198C10746F20030C5F602000029CC
:102F70001CBF42F20030C4F2020006F0D9FA18B1C8
:102F8000FFE701200E90FFE709E00F980068C06896
:102F9000800718B1FFE701200E90FFE7FFE7FFE78A
:102FA0000E9801280ED1FFE70F99086E40F480605B
:102FB00008660F99486E40F0020048660F98FFF7C8
:102FC00087FDFFE70F98016810200860FFE79DF874
:102FD00035004007002819D5FFE79DF8310040076C
:102FE000002813D5FFE70F99086E40F4804008666B
:102FF0000F99486E40F0080048660F9801684FF43A
:10300000806008600F98FFF7E3FAFFE710B080BD1B
:1030100010B590B00E9000208DF837000A900E98F1
:1030200020B9FFE701208DF83F006EE20E9800699D
:1030300040B1FFE70E9890F82000012801D1FFE78A
:10304000FFE7FFE70E98006E50B9FFE70E9800F01B
:1030500067FA0E99002048660E9981F85C00FFE738
:103060000E98006806F0D8FA28B1FFE70E980068BD
:1030700006F02AFAFFE70E98006806F0EDFAE8B9C4
:10308000FFE70E98006806F03BFA40F20800C2F233
:1030900000400068800942F66351C0F23E51A0FB37
:1030A0000101012000EB91100A90FFE70A9820B17E
:1030B000FFE70A9801380A90F8E7FFE70E980068E2
:1030C00006F0CAFA70B9FFE70E99086E40F01000DA
:1030D00008660E99486E40F00100486601208DF8A0
:1030E0003700FFE70E98006806F0BEFA0B900E98C6
:1030F000006EC006002800F1FA81FFE70B98002857
:1031000040F0F581FFE70E98006E40F0020020F4D9
:1031100080700E9908660E98006806F08DFA0028F7
:1031200070D1FFE70E980168012042F20002C4F25C
:103130000202914207900CD0FFE70E9800684DF60E
:103140000071CBF6FD710844B0FA80F04009079099
:10315000FFE70798C10746F20030C5F602000029D4
:103160001CBF42F20030C4F2020042F20031C4F24D
:103170000201884212D1FFE742F20000C4F20200CD
:1031800006F05AFA059042F20010C4F2020006F06E
:1031900053FA014605980843069007E046F20000FE
:1031A000C5F6020006F048FA0690FFE7069840BB15
:1031B000FFE70E980168012042F20002C4F2020209
:1031C000914204900CD0FFE70E9800684DF6007114
:1031D000CBF6FD710844B0FA80F040090490FFE797
:1031E0000498C10746F20030C5F6020000291CBF52
:1031F00042F20030C4F202000E99496806F0DCFA8F
:10320000FFE7FFE70E98006846F20001C5F60201ED
:1032100088423AD1FFE70E9A517ED06B40EA4131A5
:103220009068D26811430391082803D1FFE700207A
:1032300002901DE00E9880680C2803D1FFE704205F
:10324000019012E00E9880681C2803D1FFE7082047
:10325000009007E00E9881680020182908BF1C2004
:103260000090FFE700980190FFE701980290FFE7C8
:103270000398029901F00C0140EA41000E9991F87F
:10328000201040EA01400C900CE00E994A7EC86B79
:1032900040EA42308A68104391F8201040EA014029
:1032A0000C90FFE70E9890F8200001280BD1FFE763
:1032B0000E98416A0020CFF6FE7000EB41410C9859
:1032C00008430C90FFE70E98806A50B1FFE70E9913
:1032D000886AC96A00F4787001430C9808430C901E
:1032E000FFE70E98006846F20001C5F60201884229
:1032F00018D1FFE70E980068C06844F20701CFF6C6
:10330000F07108400C9908430E990968C8600E983E
:103310000068006920F040600E9A1168526B1043FB
:1033200008610DE00E980068C0684CF20301CFF60A
:10333000F07108400C9908430E990968C860FFE7CE
:103340000E98006806F090F909900E98006806F053
:103350001FF908900998002840F0A880FFE7089816
:10336000002840F0A380FFE70E98006846F20001B5
:10337000C5F60201884209D1FFE70E99087E91F84F
:103380003810800340EA41000C9006E00E98017E60
:10339000006B40EA81300C90FFE70E980068C0682F
:1033A00044F2030188430C9908430E990968C860E8
:1033B0000E9890F84400012859D1FFE70E98006854
:1033C00046F20001C5F60201884201D1FFE700E0A4
:1033D000FFE70E98806A20B1FFE70E98C06A08B92F
:1033E000FFE7FFE70E98006846F20001C5F602010C
:1033F00088421BD1FFE70E98006800694FF61E0156
:10340000CFF6004100EA01020E9B1968986CD3F8D0
:103410004CE0D3F850C040EA0E0040EA0C005B6D6F
:103420001843104340F0010008611FE00E98006847
:1034300000694FF61E01CFF6004100EA01020E9B23
:1034400019689C6CD3F84CE0D3F850C00020CFF63C
:10345000FF7000EB044040EA0E0040EA0C005B6D98
:103460001843104340F001000861FFE706E00E98A2
:103470000168086920F001000861FFE70E98006804
:10348000006920F070400E9A1168126C10430861B8
:103490000E98006846F20001C5F60201884204D089
:1034A000FFE70E98FDF7E8FBFFE7FFE70E980069DE
:1034B00001280CD1FFE70E980068006B20F00F0088
:1034C0000E9A1168D269013A1043086306E00E981B
:1034D0000168086B20F00F000863FFE70E98006E8C
:1034E00040F0010020F002000E99086608E00E99F5
:1034F000086E40F01000086601208DF83700FFE7E5
:103500009DF837008DF83F00FFE79DF83F0010B0B1
:1035100010BD00000000000081B0009001B07047B5
:1035200080B5B8B037900020369035903490339005
:10353000329004A8B821FCF721FF3798006842F2C6
:103540000001C4F2020188424FD1FFE7002005903C
:103550004FF400210491022106911922079208914B
:1035600009910A91C0210B910C900D902C9004A808
:1035700001F072FD18B1FFE7FDF786FDFFE7FFE7F9
:1035800044F2D840C5F60200016841F02001016014
:10359000006800F0200003900398FFE7FFE744F283
:1035A000E040C5F60200016841F0040101600068D6
:1035B00000F0040002900298FFE7302032900320D0
:1035C000339000200090349040F60000C5F60200D1
:1035D00032A900F031F8009A12200190114600F053
:1035E0003FFB019800F030FBFFE738B080BD0000E2
:1035F00080B584B0039000F00BFA0290039801901C
:103600000198013048B1FFE740F21000C2F20040DB
:103610000178019808440190FFE7FFE700F0F8F90E
:103620000299401A0199884201D2FFE7F6E704B0F7
:1036300080BD0000000000008FB00E900D910020B2
:103640000C908020C5F600000990FFE70D980068F7
:103650000C99C840002800F0C181FFE70D98006870
:103660000C9A0121914008400B900B98002800F023
:10367000B181FFE70D98406800F00300012807D0F2
:10368000FFE70D98406800F0030002282FD1FFE704
:103690000E9880680A900C984100032000FA01F10E
:1036A0000A9888430A900D98C0680C99490000FA5E
:1036B00001F10A9808430A900A980E9988600E98BA
:1036C00040680A900C99012000FA01F10A98884399
:1036D0000A900D984068C0F300100C9900FA01F1AF
:1036E0000A9808430A900A980E994860FFE70D98D7
:1036F000406800F00300032818D0FFE70E98C06868
:103700000A900C984100032000FA01F10A988843BE
:103710000A900D9880680C99490000FA01F10A9806
:1037200008430A900A980E99C860FFE70D98406810
:1037300000F00300022826D1FFE70E980C996FF0E5
:10374000030202EA51010844006A0A900C9800F052
:10375000070081000F2000FA01F10A9888430A90BF
:103760000D9800690C9901F00701890000FA01F138
:103770000A9808430A900A980E990C9B02EA530291
:1037800011440862FFE70E9800680A900C98410007
:10379000032000FA01F10A9888430A900D984068C6
:1037A00000F003000C99490000FA01F10A9808435F
:1037B0000A900A980E9908600D9880798007002871
:1037C00000F00781FFE7FFE744F2F440C5F602008E
:1037D000016841F002010160006800F002000890F9
:1037E0000898FFE70C9820F0030040F20841C5F666
:1037F000000140580A900C9800F0030081000F204F
:1038000000FA01F10A9888430A900E980021C5F643
:103810000201884203D1FFE7002007906CE00E9878
:1038200040F20041C5F60201884203D1FFE70120C2
:1038300006905EE00E9840F60001C5F6020188424F
:1038400003D1FFE70220059050E00E9840F60041BA
:10385000C5F60201884203D1FFE70320049042E04D
:103860000E9841F20001C5F60201884203D1FFE73C
:103870000420039034E00E9841F20041C5F60201A5
:10388000884203D1FFE70520029026E00E9841F61A
:103890000001C5F60201884203D1FFE7062001902E
:1038A00018E00E9841F60041C5F60201884203D1A6
:1038B000FFE7072000900AE00E9942F20042C5F6A9
:1038C00002020A20914208BF09200090FFE70098F9
:1038D0000190FFE701980290FFE702980390FFE74D
:1038E00003980490FFE704980590FFE70598069079
:1038F000FFE706980790FFE707980C9901F003018E
:10390000890000FA01F10A9808430A900A980C9974
:1039100021F0030140F20842C5F6000288504FF042
:10392000B04000680A900B990A9888430A900D9855
:103930008079C006002805D5FFE70B990A9808434F
:103940000A90FFE70A984FF0B04108600420C5F6DE
:10395000000000680A900B990A9888430A900D9815
:1039600080798006002805D5FFE70B990A9808435F
:103970000A90FFE70A980421C5F60001086009983B
:1039800040680A900B990A9888430A900D988079AC
:103990008007002805D5FFE70B990A9808430A908D
:1039A000FFE70A9809994860099800680A900B99FE
:1039B0000A9888430A900D988079C00728B1FFE7DC
:1039C0000B990A9808430A90FFE70A98099908603A
:1039D000FFE7FFE70C9801300C9037E60FB0704717
:1039E00082B00190ADF802108DF801209DF8010021
:1039F00028B1FFE7BDF802000199886105E0BDF834
:103A00000200000401998861FFE702B070470000DE
:103A100040F20030C2F20040006870470000000031
:103A200040F21000C2F20040027840F20031C2F2CF
:103A30000041086810440860704700000000000062
:103A400080B582B0032000F023F902F09DFD44F21E
:103A50001842C5F602021168C1F303234DF2F87152
:103A6000C0F60001CB5C03F01F03D8400090009823
:103A7000126802F00F02895C01F01F01C84040F299
:103A80000C01C2F200410860009840F20801C2F245
:103A9000004108600F2000F013F820B1FFE701207B
:103AA0008DF8070005E000F0BBF800208DF8070056
:103AB000FFE79DF8070002B080BD00000000000095
:103AC00080B582B0009040F21000C2F20040007851
:103AD00020B9FFE701208DF8070030E040F2080030
:103AE000C2F20040006840F21001C2F200410A78C0
:103AF0004FF47A71B1FBF2F1B0FBF1F004F0DCF9B4
:103B000020B1FFE701208DF8070018E000980F288A
:103B10000DD8FFE700994FF0FF30002200F0A0F829
:103B2000009840F21401C2F20041086003E0012055
:103B30008DF8070003E000208DF80700FFE79DF8EF
:103B4000070002B080BD000010B581B00090009861
:103B500040784EF69851CEF2000108604EF6A05122
:103B6000CEF20001086820F001000860009840686B
:103B70004EF69C52CEF200021060DDF800E09EF896
:103B80000C0000079EF80B2040EA02609EF800201F
:103B90009EF808309EF809C09EF80A4040EAC440EA
:103BA0009EF80D4040EA84409EF80E4040EA4440B2
:103BB0009EF80FE040EA0E4040EA0C2040EA430045
:103BC0001043086001B010BDBFF35F8F4EF6245163
:103BD000CEF20001086820F4803008604EF694515F
:103BE000CEF20001002008607047000000000000D5
:103BF00081B00090009840F001004EF69451CEF252
:103C0000000108604EF62451CEF20001086840F42D
:103C100080300860BFF34F8FBFF36F8F01B07047E4
:103C200081B0FFE744F2F440C5F60200016841F0BC
:103C300002010160006800F0020000900098FFE7B8
:103C400001B070470000000080B582B0ADF80600FA
:103C5000BDF9060008F014FB02B080BD00000000B2
:103C600080B586B0ADF816000491039208F020FBF1
:103C70000290BDF91600019002980499039A06F08B
:103C800053F90146019808F01BFB06B080BD000007
:103C900080B582B00190019808F036FB02B080BD7B
:103CA00080B584B0029044F60C00C5F602000068AE
:103CB00000F004010020B0EB910F13D1FFE744F6B0
:103CC0000C00C5F60200006800F007000299884267
:103CD00004D0FFE701208DF80F002EE000208DF8C2
:103CE0000F002AE044F60C01C5F60201086820F036
:103CF0000700029A10430860FFF78AFE0190FFE771
:103D000044F60400C5F60200006800F400510020EB
:103D1000B0EB513F0DD1FFE7FFF77AFE0199401A52
:103D2000B0F57A7F04D9FFE701208DF80F0004E099
:103D3000E6E700208DF80F00FFE79DF80F0004B0C4
:103D400080BD00000000000080B502F0C9FB44F215
:103D50002041C5F602010968C1F302124DF2F87163
:103D6000C0F60001895C01F01F01C84080BD000061
:103D700088B0079044F22840C5F60200016801F0BF
:103D8000030106910068C0F30510059044F22C4031
:103D9000C5F60200006800F001000490049844F2A7
:103DA0003441C5F60201096889B2C908484300EEEA
:103DB000100AB8EE400A8DED020A0598002800F0BE
:103DC0001B81FFE70698009048B1FFE700980128A3
:103DD00069D0FFE70098022800F08980ABE044F248
:103DE0000040C5F60200006800F020010020B0EBA2
:103DF000511F33D0FFE744F20040C5F602000068CF
:103E0000C0F3C10149F20000C0F2D030C8400390B5
:103E10009DED030AB8EE400A9DED051AB8EE411A71
:103E200080EE010A44F23040C5F6020000686FF3EC
:103E30005F2001EE100AB8EE411A9DED022A9FEDB7
:103E4000743A82EE032A31EE021AB7EE002A31EEFE
:103E5000021A20EE010A8DED010A23E09DED050A0C
:103E6000B8EE401A9FED6C0A80EE010A44F2304031
:103E7000C5F6020000686FF35F2001EE100AB8EE8D
:103E8000411A9DED022A9FED623A82EE032A31EE3D
:103E9000021AB7EE002A31EE021A20EE010A8DED69
:103EA000010AFFE76BE09DED050AB8EE401A9FEDB1
:103EB000590A80EE010A44F23040C5F6020000685B
:103EC0006FF35F2001EE100AB8EE411A9DED022A51
:103ED0009FED4F3A82EE032A31EE021AB7EE002A26
:103EE00031EE021A20EE010A8DED010A47E09DED48
:103EF000050AB8EE401A9FED450A80EE010A44F229
:103F00003040C5F6020000686FF35F2001EE100A32
:103F1000B8EE411A9DED022A9FED3D3A82EE032A4A
:103F200031EE021AB7EE002A31EE021A20EE010A33
:103F30008DED010A23E09DED050AB8EE401A9FEDD4
:103F4000360A80EE010A44F23040C5F602000068ED
:103F50006FF35F2001EE100AB8EE411A9DED022AC0
:103F60009FED2B3A82EE032A31EE021AB7EE002AB9
:103F700031EE021A20EE010A8DED010AFFE79DEDF8
:103F8000010A44F23040C5F60200016889B2490ACC
:103F900001EE101AB8EE411AB7EE002A31EE021AFD
:103FA00080EE010A0799BCEEC00A81ED000A9DED82
:103FB000010A0168C1F3064101EE101AB8EE411A78
:103FC00031EE021A80EE010A0799BCEEC00A81EDBB
:103FD000010A9DED010A0068C0F3066001EE100AB7
:103FE000B8EE411A31EE021A80EE010A0798BCEED3
:103FF000C00A80ED020A07E00799002008600799CF
:10400000486007998860FFE708B0704720BCBE4B46
:10401000000000460024744A0024744C0000000094
:1040200088B0079044F22840C5F60200016801F00C
:10403000030106910068C0F30530059044F22C405E
:10404000C5F602000068C0F300100490049844F222
:104050003C41C5F60201096889B2C908484300EE2F
:10406000100AB8EE400A8DED020A0598002800F00B
:104070001B81FFE70698009048B1FFE700980128F0
:1040800069D0FFE70098022800F08980ABE044F295
:104090000040C5F60200006800F020010020B0EBEF
:1040A000511F33D0FFE744F20040C5F6020000681C
:1040B000C0F3C10149F20000C0F2D030C840039003
:1040C0009DED030AB8EE400A9DED051AB8EE411ABF
:1040D00080EE010A44F23840C5F6020000686FF332
:1040E0005F2001EE100AB8EE411A9DED022A9FED05
:1040F000743A82EE032A31EE021AB7EE002A31EE4C
:10410000021A20EE010A8DED010A23E09DED050A59
:10411000B8EE401A9FED6C0A80EE010A44F2384076
:10412000C5F6020000686FF35F2001EE100AB8EEDA
:10413000411A9DED022A9FED623A82EE032A31EE8A
:10414000021AB7EE002A31EE021A20EE010A8DEDB6
:10415000010AFFE76BE09DED050AB8EE401A9FEDFE
:10416000590A80EE010A44F23840C5F602000068A0
:104170006FF35F2001EE100AB8EE411A9DED022A9E
:104180009FED4F3A82EE032A31EE021AB7EE002A73
:1041900031EE021A20EE010A8DED010A47E09DED95
:1041A000050AB8EE401A9FED450A80EE010A44F276
:1041B0003840C5F6020000686FF35F2001EE100A78
:1041C000B8EE411A9DED022A9FED3D3A82EE032A98
:1041D00031EE021AB7EE002A31EE021A20EE010A81
:1041E0008DED010A23E09DED050AB8EE401A9FED22
:1041F000350A80EE010A44F23840C5F60200006834
:104200006FF35F2001EE100AB8EE411A9DED022A0D
:104210009FED2B3A82EE032A31EE021AB7EE002A06
:1042200031EE021A20EE010A8DED010AFFE79DED45
:10423000010A44F23840C5F60200016889B2490A11
:1042400001EE101AB8EE411AB7EE002A31EE021A4A
:1042500080EE010A0799BCEEC00A81ED000A9DEDCF
:10426000010A0168C1F3064101EE101AB8EE411AC5
:1042700031EE021A80EE010A0799BCEEC00A81ED08
:10428000010A9DED010A0068C0F3066001EE100A04
:10429000B8EE411A31EE021A80EE010A0798BCEE20
:1042A000C00A80ED020A07E007990020086007991C
:1042B000486007998860FFE708B0704720BCBE4B94
:1042C000000000460024744A0024744C00000000E2
:1042D00088B0079044F22840C5F60200016801F05A
:1042E000030106910068C0F30550059044F22C408C
:1042F000C5F602000068C0F300200490049844F260
:104300004441C5F60201096889B2C908484300EE74
:10431000100AB8EE400A8DED020A0598002800F058
:104320001B81FFE70698009048B1FFE7009801283D
:1043300069D0FFE70098022800F08980ABE044F2E2
:104340000040C5F60200006800F020010020B0EB3C
:10435000511F33D0FFE744F20040C5F60200006869
:10436000C0F3C10149F20000C0F2D030C840039050
:104370009DED030AB8EE400A9DED051AB8EE411A0C
:1043800080EE010A44F24040C5F6020000686FF377
:104390005F2001EE100AB8EE411A9DED022A9FED52
:1043A000743A82EE032A31EE021AB7EE002A31EE99
:1043B000021A20EE010A8DED010A23E09DED050AA7
:1043C000B8EE401A9FED6C0A80EE010A44F24040BC
:1043D000C5F6020000686FF35F2001EE100AB8EE28
:1043E000411A9DED022A9FED623A82EE032A31EED8
:1043F000021AB7EE002A31EE021A20EE010A8DED04
:10440000010AFFE76BE09DED050AB8EE401A9FED4B
:10441000590A80EE010A44F24040C5F602000068E5
:104420006FF35F2001EE100AB8EE411A9DED022AEB
:104430009FED4F3A82EE032A31EE021AB7EE002AC0
:1044400031EE021A20EE010A8DED010A47E09DEDE2
:10445000050AB8EE401A9FED450A80EE010A44F2C3
:104460004040C5F6020000686FF35F2001EE100ABD
:10447000B8EE411A9DED022A9FED3D3A82EE032AE5
:1044800031EE021AB7EE002A31EE021A20EE010ACE
:104490008DED010A23E09DED050AB8EE401A9FED6F
:1044A000350A80EE010A44F24040C5F60200006879
:1044B0006FF35F2001EE100AB8EE411A9DED022A5B
:1044C0009FED2B3A82EE032A31EE021AB7EE002A54
:1044D00031EE021A20EE010A8DED010AFFE79DED93
:1044E000010A44F24040C5F60200016889B2490A57
:1044F00001EE101AB8EE411AB7EE002A31EE021A98
:1045000080EE010A0799BCEEC00A81ED000A9DED1C
:10451000010A0168C1F3064101EE101AB8EE411A12
:1045200031EE021A80EE010A0799BCEEC00A81ED55
:10453000010A9DED010A0068C0F3066001EE100A51
:10454000B8EE411A31EE021A80EE010A0798BCEE6D
:10455000C00A80ED020A07E0079900200860079969
:10456000486007998860FFE708B0704720BCBE4BE1
:10457000000000460024744A0024744C000000002F
:1045800080B598B0179116901698179980F480709E
:104590000843002840F0A880FFE744F25040C5F6E9
:1045A0000200006800F007000B900B9808900428A8
:1045B00000F295800899DFE801F00316298C3C0091
:1045C00044F20040C5F6020000688001002806D5CC
:1045D000FFE713A8FFF7CCFB14980C9002E0002033
:1045E0000C90FFE77EE044F20040C5F60200006850
:1045F0000001002806D5FFE710A8FFF711FD10986D
:104600000C9002E000200C90FFE76BE044F20040C9
:10461000C5F6020000688000002806D5FFE70DA857
:10462000FFF756FE0D980C9002E000200C90FFE77B
:1046300058E044F24C40C5F60200006800F04050DB
:104640000A9044F20040C5F60200006840070028C6
:1046500011D5FFE70A9870B9FFE744F20040C5F6AC
:1046600002000068C0F3C10149F20000C0F2D0307E
:10467000C8400C902CE044F20040C5F602000068EF
:10468000C00500280BD5FFE70A98B0F1805F06D17E
:10469000FFE740F60010C0F23D000C9017E044F236
:1046A0000040C5F602000068800300280BD5FFE734
:1046B0000A98B0F1005F06D1FFE747F64000C0F26C
:1046C0007D100C9002E000200C90FFE7FFE7FFE771
:1046D00008E048F20000C0F2BB000C9002E00020AD
:1046E0000C90FFE700F0B2BC1698179980F4806038
:1046F0000843002840F0B580FFE744F25840C5F673
:104700000200006800F460000B900B980790A8B1BD
:10471000FFE70798B0F5001F23D0FFE70798B0F533
:10472000800F31D0FFE70798B0F5C00F00F08F8001
:10473000FFE70798B0F5000F39D08EE044F2004053
:10474000C5F6020000688001002806D5FFE713A81F
:10475000FFF70EFB14980C9002E000200C90FFE78E
:104760007EE044F20040C5F6020000680001002827
:1047700006D5FFE710A8FFF753FC10980C9002E055
:1047800000200C90FFE76BE044F20040C5F6020009
:1047900000688000002806D5FFE70DA8FFF798FD08
:1047A0000D980C9002E000200C90FFE758E044F2D6
:1047B0004C40C5F60200006800F040500A9044F2F8
:1047C0000040C5F6020000684007002811D5FFE749
:1047D0000A9870B9FFE744F20040C5F6020000688D
:1047E000C0F3C10149F20000C0F2D030C8400C90C3
:1047F0002CE044F20040C5F602000068C005002825
:104800000BD5FFE70A98B0F1805F06D1FFE740F6CD
:104810000010C0F23D000C9017E044F20040C5F6D5
:1048200002000068800300280BD5FFE70A98B0F16A
:10483000005F06D1FFE747F64000C0F27D100C9004
:1048400002E000200C90FFE7FFE7FFE708E048F2F6
:104850000000C0F2BB000C9002E000200C90FFE7CB
:10486000F3E31698179980F400600843002840F09D
:10487000B580FFE744F25840C5F60200006800F03A
:10488000E0600B900B980690A8B1FFE70698B0F196
:10489000807F23D0FFE70698B0F1007F31D0FFE79B
:1048A0000698B0F1407F00F08F80FFE70698B0F1E6
:1048B000806F39D08EE044F20040C5F602000068F7
:1048C0008001002806D5FFE713A8FFF751FA1498D6
:1048D0000C9002E000200C90FFE77EE044F20040E4
:1048E000C5F6020000680001002806D5FFE710A801
:1048F000FFF796FB10980C9002E000200C90FFE769
:104900006BE044F20040C5F6020000688000002819
:1049100006D5FFE70DA8FFF7DBFC0D980C9002E031
:1049200000200C90FFE758E044F24C40C5F602002E
:10493000006800F040500A9044F20040C5F60200C2
:1049400000684007002811D5FFE70A9870B9FFE713
:1049500044F20040C5F602000068C0F3C10149F20C
:104960000000C0F2D030C8400C902CE044F200406F
:10497000C5F602000068C00500280BD5FFE70A98BD
:10498000B0F1805F06D1FFE740F60010C0F23D00B5
:104990000C9017E044F20040C5F602000068800366
:1049A00000280BD5FFE70A98B0F1005F06D1FFE7BA
:1049B00047F64000C0F27D100C9002E000200C9001
:1049C000FFE7FFE7FFE708E048F20000C0F2BB00A6
:1049D0000C9002E000200C90FFE735E31698179941
:1049E00080F480500843002840F0B580FFE744F28F
:1049F0005040C5F60200006800F4E04009900998B4
:104A00000590A8B1FFE70598B0F5805F23D0FFE7D8
:104A10000598B0F5005F31D0FFE70598B0F5405F2D
:104A200000F08F80FFE70598B0F5804F39D08EE019
:104A300044F20040C5F6020000688001002806D557
:104A4000FFE713A8FFF794F914980C9002E00020F8
:104A50000C90FFE77EE044F20040C5F602000068DB
:104A60000001002806D5FFE710A8FFF7D9FA109833
:104A70000C9002E000200C90FFE76BE044F2004055
:104A8000C5F6020000688000002806D5FFE70DA8E3
:104A9000FFF71EFC0D980C9002E000200C90FFE741
:104AA00058E044F24C40C5F60200006800F0405067
:104AB0000A9044F20040C5F6020000684007002852
:104AC00011D5FFE70A9870B9FFE744F20040C5F638
:104AD00002000068C0F3C10149F20000C0F2D0300A
:104AE000C8400C902CE044F20040C5F6020000687B
:104AF000C00500280BD5FFE70A98B0F1805F06D10A
:104B0000FFE740F60010C0F23D000C9017E044F2C1
:104B10000040C5F602000068800300280BD5FFE7BF
:104B20000A98B0F1005F06D1FFE747F64000C0F2F7
:104B30007D100C9002E000200C90FFE7FFE7FFE7FC
:104B400008E048F20000C0F2BB000C9002E0002038
:104B50000C90FFE777E21698179980F4005008430D
:104B6000002840F09580FFE744F25040C5F602006F
:104B7000006800F4E020099009980490C8B1FFE7AC
:104B80000498B0F5803F18D0FFE70498B0F5003FD7
:104B900026D0FFE70498B0F5403F34D0FFE70498F3
:104BA000B0F5802F4AD0FFE70498B0F5A02F58D079
:104BB0006AE001F0C1FC0C9069E044F20040C5F6E7
:104BC000020000680001002806D5FFE710A8FFF7E3
:104BD00027FA11980C9002E000200C90FFE756E0B5
:104BE00044F20040C5F6020000688000002806D5A7
:104BF000FFE70DA8FFF76CFB0E980C9002E0002079
:104C00000C90FFE743E044F20040C5F60200006864
:104C1000400700280ED5FFE744F20040C5F6020029
:104C20000068C0F3C10149F20000C0F2D030C840B2
:104C30000C9002E000200C90FFE728E044F20040D6
:104C4000C5F602000068C005002806D5FFE740F65B
:104C50000010C0F23D000C9002E000200C90FFE735
:104C600015E044F20040C5F6020000688003002809
:104C700006D5FFE747F64000C0F27D100C9002E039
:104C800000200C90FFE702E000200C90FFE7D9E144
:104C90001698179980F400200843002840F091806E
:104CA000FFE744F25840C5F60200006800F44030C7
:104CB00009900998039050B1FFE70398B0F5803F41
:104CC00018D0FFE70398B0F5003F26D075E044F216
:104CD0000040C5F6020000680001002806D5FFE785
:104CE00010A8FFF79DF910980C9002E000200C909E
:104CF000FFE765E044F20040C5F60200006880006E
:104D0000002806D5FFE70DA8FFF7E2FA0F980C90F0
:104D100002E000200C90FFE752E044F24C40C5F660
:104D20000200006800F040500A9044F20040C5F6CE
:104D3000020000684007002811D5FFE70A9870B903
:104D4000FFE744F20040C5F602000068C0F3C1016D
:104D500049F20000C0F2D030C8400C902CE044F280
:104D60000040C5F602000068C00500280BD5FFE72B
:104D70000A98B0F1805F06D1FFE740F60010C0F25C
:104D80003D000C9017E044F20040C5F602000068B8
:104D9000800300280BD5FFE70A98B0F1005F06D129
:104DA000FFE747F64000C0F27D100C9002E00020C3
:104DB0000C90FFE7FFE7FFE702E000200C90FFE721
:104DC0003FE11698179980F480300843D8BBFFE77D
:104DD00044F24C40C5F60200006800F480300990AF
:104DE0000998029028B1FFE70298B0F5803F13D0F0
:104DF00025E044F20040C5F602000068800100286A
:104E000006D5FFE713A8FEF7B3FF14980C9002E055
:104E100000200C90FFE715E044F20040C5F60200C8
:104E200000680001002806D5FFE710A8FFF7F8F892
:104E300012980C9002E000200C90FFE702E00020A6
:104E40000C90FFE7FCE01698179980F48040084327
:104E5000002840F09580FFE744F25840C5F6020074
:104E6000006800F0E040099009980190C8B1FFE7A0
:104E70000198B0F1805F18D0FFE70198B0F1005FB2
:104E800026D0FFE70198B0F1405F34D0FFE70198EA
:104E9000B0F1804F4AD0FFE70198B0F1A04F58D051
:104EA0006AE0FEF751FF0C9069E044F20040C5F65D
:104EB000020000680001002806D5FFE710A8FFF7F0
:104EC000AFF811980C9002E000200C90FFE756E03C
:104ED00044F20040C5F6020000688000002806D5B4
:104EE000FFE70DA8FFF7F4F90E980C9002E0002000
:104EF0000C90FFE743E044F20040C5F60200006872
:104F0000400700280ED5FFE744F20040C5F6020036
:104F10000068C0F3C10149F20000C0F2D030C840BF
:104F20000C9002E000200C90FFE728E044F20040E3
:104F3000C5F602000068C005002806D5FFE740F668
:104F40000010C0F23D000C9002E000200C90FFE742
:104F500015E044F20040C5F6020000688003002816
:104F600006D5FFE747F64000C0F27D100C9002E046
:104F700000200C90FFE702E000200C90FFE75EE0CD
:104F80001698179980F400400843002853D1FFE792
:104F900044F25040C5F60200006800F0405009900D
:104FA0000998009050B1FFE70098B0F1805F18D0E9
:104FB000FFE70098B0F1005F26D038E044F20040EF
:104FC000C5F6020000688003002806D5FFE747F613
:104FD0004000C0F27D100C9002E000200C90FFE732
:104FE00028E044F20040C5F6020000688001002875
:104FF00006D5FFE713A8FEF7BBFE14980C9002E05D
:1050000000200C90FFE715E044F20040C5F60200D6
:1050100000680001002806D5FFE710A8FFF700F898
:1050200011980C9002E000200C90FFE702E00020B5
:105030000C90FFE702E000200C90FFE7FFE7FFE79E
:10504000FFE7FFE7FFE7FFE7FFE7FFE70C9818B090
:1050500080BD00000000000080B59AB018900020CC
:105060008DF857008DF856001898C0780007002872
:1050700048D5FFE71898406E149078B1FFE7149870
:10508000B0F5801F13D0FFE71498B0F5001F16D0BD
:10509000FFE71498B0F5401F19D019E044F22C41F5
:1050A000C5F60201086840F40030086014E0189862
:1050B0000830022105F02CF88DF857000CE0189804
:1050C0002830022105F00CF98DF8570004E003E0C8
:1050D00001208DF85700FFE79DF8570060B9FFE702
:1050E00044F25041C5F60201086820F44010189AB5
:1050F000526E1043086004E09DF857008DF856008A
:10510000FFE7FFE718984078C007002840D0FFE786
:105110001898806D1390042820D81399DFE801F0C7
:10512000030C141C1D0044F22C41C5F60201086852
:1051300040F40030086015E018980830002104F0B1
:10514000E7FF8DF857000DE018982830002105F092
:10515000C7F88DF8570005E004E003E001208DF862
:105160005700FFE79DF8570060B9FFE744F2504150
:10517000C5F60201086820F00700189A926D1043E6
:10518000086004E09DF857008DF85600FFE7FFE740
:10519000189840784007002856D5FFE71898D0F8AF
:1051A000A4001290C8B1FFE71298B0F5001F1DD0FF
:1051B000FFE71298B0F5800F20D0FFE71298B0F506
:1051C000C00F23D0FFE71298B0F5000F1FD0FFE704
:1051D0001298B0F5200F1BD01BE044F22C41C5F60D
:1051E0000201086840F40030086016E018980830A2
:1051F000002104F08DFF8DF857000EE0189828303C
:10520000002105F06DF88DF8570006E005E004E098
:1052100003E001208DF85700FFE79DF8570068B9BB
:10522000FFE744F25841C5F60201086820F4600027
:10523000189AD2F8A4201043086004E09DF85700A3
:105240008DF85600FFE7FFE7189840780007002820
:1052500056D5FFE71898D0F8A8001190C8B1FFE71D
:105260001198B0F1807F1DD0FFE71198B0F1007F59
:1052700020D0FFE71198B0F1407F23D0FFE71198CD
:10528000B0F1806F1FD0FFE71198B0F1A06F1BD075
:105290001BE044F22C41C5F60201086840F40030DE
:1052A000086016E018980830002104F031FF8DF8EE
:1052B00057000EE018982830002105F011F88DF8FD
:1052C000570006E005E004E003E001208DF85700F8
:1052D000FFE79DF8570068B9FFE744F25841C5F66B
:1052E0000201086820F0E060189AD2F8A820104364
:1052F000086004E09DF857008DF85600FFE7FFE7CF
:105300001898C078800700283ED5FFE71898C06C31
:105310001090F0B1FFE71098102808D0FFE7109820
:1053200020280DD0FFE71098302811D012E044F269
:105330002C41C5F60201086840F4003008600DE019
:1053400018980830022104F0E3FE8DF8570005E0BC
:1053500004E003E001208DF85700FFE79DF85700B7
:1053600060B9FFE744F24C41C5F60201086820F03D
:105370003000189AD26C1043086004E09DF8570082
:105380008DF85600FFE7FFE718984078C006002820
:105390004ED5FFE71898C06D0F90A0B1FFE70F98AA
:1053A000B0F5805F18D0FFE70F98B0F5005F1BD015
:1053B000FFE70F98B0F5405F1ED0FFE70F98B0F5FC
:1053C000804F1AD01AE044F22C41C5F60201086859
:1053D00040F40030086015E018980830002104F00F
:1053E00097FE8DF857000DE018982830002104F042
:1053F00077FF8DF8570005E004E003E001208DF809
:105400005700FFE79DF8570060B9FFE744F25041AD
:10541000C5F60201086820F4E040189AD26D1043E6
:10542000086004E09DF857008DF85600FFE7FFE79D
:1054300018984078800600284CD5FFE71898006E31
:105440000E90C8B1FFE70E98B0F5803F15D0FFE78A
:105450000E98B0F5003F18D0FFE70E98B0F5403F2A
:105460001BD0FFE70E98B0F5802F17D0FFE70E98FE
:10547000B0F5A02F13D013E016E0189808300121E2
:1054800004F046FE8DF857000EE0189828300121F0
:1054900004F026FF8DF8570006E005E004E003E085
:1054A00001208DF85700FFE79DF8570060B9FFE72E
:1054B00044F25041C5F60201086820F4E020189A31
:1054C000126E1043086004E09DF857008DF85600F6
:1054D000FFE7FFE718984078400600284ED5FFE721
:1054E0001898D0F8AC000D90C8B1FFE70D98B0F156
:1054F000805F15D0FFE70D98B0F1005F18D0FFE78F
:105500000D98B0F1405F1BD0FFE70D98B0F1804FD0
:1055100017D0FFE70D98B0F1A04F13D013E016E0BD
:1055200018980830012104F0F3FD8DF857000EE0C3
:1055300018982830012104F0D3FE8DF8570006E0BA
:1055400005E004E003E001208DF85700FFE79DF837
:10555000570068B9FFE744F25841C5F602010868F0
:1055600020F0E040189AD2F8AC201043086004E024
:105570009DF857008DF85600FFE7FFE71898407830
:10558000000600283BD5FFE71898C06E0C90D8B1F4
:10559000FFE70C98B0F1805F05D0FFE70C98B0F101
:1055A000005F09D011E044F22C41C5F60201086801
:1055B00040F4003008600CE018980830012104F035
:1055C000A7FD8DF8570004E003E001208DF8570097
:1055D000FFE79DF8570060B9FFE744F25041C5F678
:1055E0000201086820F04050189AD26E10430860FB
:1055F00004E09DF857008DF85600FFE7FFE7189884
:10560000C078C007002837D0FFE71898806C0B904F
:10561000032817D80B99DFE801F014020B1344F2AA
:105620002C41C5F60201086840F4003008600DE026
:1056300018980830022104F06BFD8DF8570005E042
:1056400004E003E001208DF85700FFE79DF85700C4
:1056500060B9FFE744F24C41C5F60201086820F04A
:105660000300189A926C1043086004E09DF85700FC
:105670008DF85600FFE7FFE718988078400600286D
:1056800040F1B480FFE744F60001C5F60201086866
:1056900040F480700860FEF7BBF91690FFE744F60F
:1056A0000000C5F602000068C00500280CD4FFE722
:1056B000FEF7AEF91699401A652804D3FFE70320D8
:1056C0008DF8570000E0EAE79DF85700002840F009
:1056D0008780FFE744F27040C5F60200006800F4DE
:1056E00040701899D1F8B01001F44071884213D07D
:1056F000FFE744F27041C5F60201086820F44070EB
:105700001790086840F480300860086820F4803002
:10571000086017980860FFE71898D0F8B000B0F557
:10572000807F1FD1FFE7FEF773F91690FFE744F281
:105730007040C5F60200006800F002010020B0EBE6
:10574000510F0ED1FFE7FEF763F91699401A41F2A7
:105750008931884204D3FFE703208DF8570000E029
:10576000E5E7FFE79DF85700A0BBFFE7FFE71898C4
:10577000D0F8B00000F44070B0F5407F13D1FFE7DF
:1057800044F21041C5F60201086820F47C50189AD2
:10579000D2F8B0204FF6F043C0F6FF731A4040EA4B
:1057A0001210086008E044F21041C5F602010868D2
:1057B00020F47C500860FFE71898D0F8B0206FF311
:1057C0001F3244F27041C5F60201086810430860B8
:1057D000FFE704E09DF857008DF85600FFE704E06E
:1057E0009DF857008DF85600FFE7FFE7189800680E
:1057F000C007002800F04C80FFE71898806F0A90DF
:1058000028282BD80A99DFE801F015292929292908
:10581000292916292929292929291E292929292916
:1058200029292629292929292929272929292929ED
:105830002929280016E018980830012104F068FC96
:105840008DF857000EE018982830012104F048FD2B
:105850008DF8570006E005E004E003E001208DF834
:105860005700FFE79DF8570060B9FFE744F2544145
:10587000C5F60201086820F03800189A926F1043AC
:10588000086004E09DF857008DF85600FFE7FFE739
:10589000189800788007002839D5FFE71898406FDE
:1058A0000990052819D80999DFE801F003040C14C0
:1058B000151616E018980830012104F029FC8DF81F
:1058C00057000EE018982830012104F009FD8DF8EA
:1058D000570006E005E004E003E001208DF85700E2
:1058E000FFE79DF8570060B9FFE744F25441C5F661
:1058F0000201086820F00700189A526F10430860F0
:1059000004E09DF857008DF85600FFE7FFE7189870
:105910000078400700283BD5FFE71898D0F89000A2
:105920000890052819D80899DFE801F003040C1441
:10593000151616E018980830012104F0E9FB8DF8DF
:1059400057000EE018982830012104F0C9FC8DF8AA
:10595000570006E005E004E003E001208DF8570061
:10596000FFE79DF8570068B9FFE744F25841C5F6D4
:105970000201086820F00700189AD2F8902010431E
:10598000086004E09DF857008DF85600FFE7FFE738
:1059900018980078800600284ED5FFE71898D0F8B0
:1059A0008C000790C8B1FFE70798B0F1805F15D071
:1059B000FFE70798B0F1005F18D0FFE70798B0F154
:1059C000405F1BD0FFE70798B0F1804F17D0FFE78B
:1059D0000798B0F1A04F13D013E016E018980830E4
:1059E000002104F095FB8DF857000EE01898283040
:1059F000022104F075FC8DF8570006E005E004E094
:105A000003E001208DF85700FFE79DF8570068B9C3
:105A1000FFE744F25441C5F60201086820F0E04077
:105A2000189AD2F88C201043086004E09DF85700C3
:105A30008DF85600FFE7FFE7189800784006002829
:105A40004ED5FFE71898D0F898000690C8B1FFE748
:105A50000698B0F5806F15D0FFE70698B0F5006F97
:105A600018D0FFE70698B0F5406F1BD0FFE7069807
:105A7000B0F5805F17D0FFE70698B0F5A05F13D0B0
:105A800013E016E018980830002104F041FB8DF86F
:105A900057000EE018982830022104F021FC8DF800
:105AA000570006E005E004E003E001208DF8570010
:105AB000FFE79DF8570068B9FFE744F25841C5F683
:105AC0000201086820F4E050189AD2F89820104398
:105AD000086004E09DF857008DF85600FFE7FFE7E7
