:020000040800F2
:1000000000040020E1020008B1610008395D000829
:10001000A9610008790B000899830008000000001E
:10002000000000000000000000000000D167000890
:10003000810B0008000000002962000831680008F8
:10004000FF020008FF020008FF020008FF0200088C
:10005000FF020008FF020008FF020008FF0200087C
:10006000FF020008FF020008FF020008FF0200086C
:10007000FF020008FF020008FF020008FF0200085C
:10008000FF020008FF020008FF020008FF0200084C
:10009000FF020008FF020008FF020008FF0200083C
:1000A000FF020008FF020008FF020008FF0200082C
:1000B000FF020008FF020008FF020008FF0200081C
:1000C000FF020008FF020008FF020008FF0200080C
:1000D000FF020008FF020008FF020008FF020008FC
:1000E000FF020008FF02000800000000FF020008F5
:1000F000716A0008FF020008FF020008FF02000802
:10010000FF020008FF020008FF020008FF020008CB
:10011000FF020008FF020008FF020008FF020008BB
:10012000FF020008FF020008FF020008FF020008AB
:10013000FF020008FF020008FF020008FF0200089B
:1001400000000000000000000000000000000000AF
:10015000FF020008FF020008FF020008FF0200087B
:10016000FF020008FF020008FF020008FF0200086B
:10017000FF020008FF020008FF0200080000000064
:10018000FF020008FF020008FF020008FF0200084B
:10019000FF020008FF020008FF020008FF0200083B
:1001A000FF020008FF020008FF0200080000000034
:1001B000FF020008FF020008FF020008FF0200081B
:1001C000FF020008FF02000800000000000000001D
:1001D0000000000000000000FF0200080000000016
:1001E000000000000000000000000000000000000F
:1001F0000000000000000000FF020008FF020008ED
:10020000FF020008FF02000800000000FF020008D3
:10021000FF020008FF020008FF020008FF020008BA
:10022000FF02000800000000FF02000800000000BC
:10023000FF020008FF02000800000000FF020008A3
:10024000FF020008FF020008FF020008FF0200088A
:10025000FF020008FF020008FF020008FF0200087A
:10026000FF020008FF020008FF020008FF0200086A
:10027000FF020008FF020008FF0200080000000063
:10028000FF020008FF020008FF020008FF0200084A
:1002900000000000FF020008FF020008000000004C
:1002A00000000000FF020008FF020008FF02000833
:1002B000FF020008FF020008FF020008FF0200081A
:1002C000FF020008FF020008FF020008DFF80CD060
:1002D00000F04CFA0048004729880008000400207C
:1002E000074880470748804707480047FEE7FEE782
:1002F000FEE7FEE7FEE7FEE7FEE7FEE7FEE7FEE7D6
:10030000990B000809690008CD0200082DE9F05F8B
:100310000546002092469B46884606468146402474
:100320001BE0284641464746224600F057F8534610
:100330005A46C01A914110D311461846224600F081
:100340003EF82D1A67EB01084F4622460120002196
:1003500000F035F817EB00094E41201EA4F101040E
:10036000DFDC484631462A464346BDE8F09FD2B21C
:1003700001E000F8012B491EFBD270470022F6E78E
:1003800010B513460A4604461946FFF7F0FF20460B
:1003900010BD30B50B46014600202022012409E0A3
:1003A00021FA02F59D4205D303FA02F5491B04FA2E
:1003B00002F52844151EA2F10102F1DC30BD202A0D
:1003C00004DB203A00FA02F1002070479140C2F1AC
:1003D000200320FA03F3194390407047202A04DBDE
:1003E000203A21FA02F00021704721FA02F3D040AE
:1003F000C2F1200291400843194670472DE9FE4F93
:10040000804681EA0300C00F0C46009021F00041B5
:1004100023F00045B8EB0200A94105D24046214631
:1004200090461C460B46024623F00040104347D03E
:10043000270DC7F30A00C3F30A510290401A019036
:1004400040286BDAC3F3130040F4801B00989246F7
:1004500020B10023D2EB030A63EB0B0B0198594642
:10046000C0F140025046FFF7AAFF06460D4650462F
:100470005946019A00F08CF910EB08006141002404
:1004800087EA115284EAE7731A4340D0009A62B3B4
:10049000019A012A4FEA075215DC001B61EB0201A9
:1004A0004FF0004202EA0752CDE90042001C41F53C
:1004B000801132462B4600F08CF903B0BDE8F08F76
:1004C00040462146F9E7001B61EB0201001C41F5A3
:1004D000801300185B412018A2F5001747EB0301B9
:1004E00040EAD570B6196D4111E06D084FEA360645
:1004F00045EAC0754FEA0752001B61EB0201001C80
:1005000041F5801149084FEA300000195141324647
:100510002B4603B0BDE8F04F00F04CB90098012223
:1005200040000023D0EB020263EBE0730098214609
:100530004FEAE074B8EB000061EB0401E9E783F0F7
:1005400000435BE781F0004158E72DE9FE4F81EA67
:10055000030404F0004421F0004100944FF0000B2C
:1005600023F0004350EA01045ED052EA03045BD05A
:10057000C3F30A54C1F30A552C44A4F2F334019492
:10058000A0FB0254C1F3130141F48011C3F3130320
:1005900043F4801301FB024400FB034E840A970AD4
:1005A00044EA815447EA8357A4FB076802958D0A01
:1005B00005FB07854FEA932C04FB0C542705029D8D
:1005C0004FEA065847EA1637B5EB08056EEB070CFD
:1005D000870E920E47EA811742EA8312A7FB0201B7
:1005E000B6EB0B0164EB00042B0D43EA0C335E18F1
:1005F00044EB1C50DA465146E7FB0201C5F31304F5
:100600004FEA0B3343EA14534FEA0432019C43EAA6
:100610000603A4F10C040294009CCDE900B400F0A0
:10062000D8F803B0BDE8F08F00200146F9E72DE9C6
:10063000F04D81EA030404F0004B21F0004514461C
:100640004FF0000A23F0004150EA050220D054EA9E
:1006500001021DD0C5F30A570246C5F31303C1F3C7
:100660001300C1F30A5640F4801543F48013A7EB3E
:100670000608101BD64608F2FD3873EB050002D3BE
:1006800008F1010801E092185B41B8F1000F03DAAC
:1006900000200146BDE8F08D00204FF48011064691
:1006A00084460EE0171B73EB050705D3121B63EBA3
:1006B000050306434CEA010C49084FEA3000921842
:1006C0005B4150EA0107EDD152EA030012D082EA01
:1006D000040083EA0501084305D0101BAB4106D294
:1006E0000122002306E000224FF0004302E06FF0F9
:1006F000010253101AEB06004CEB085110EB0A00F4
:1007000041EB0B01BDE8F04D00F054B8C1F30A52C3
:10071000C1F3130140F2FF3341F480119A4202DA2F
:1007200000200146704740F233439A42A2F233421E
:1007300002DC5242FFF752BEFFF741BE30B5041E45
:1007400071F1000404DB4FF00044404264EB01010E
:10075000141E73F1000405DB1C464FF000435242A7
:1007600063EB0403994208BF904230BD064C074D2D
:1007700006E0E06840F0010394E807009847103471
:10078000AC42F6D3FFF7A6FD6896000898960008DD
:10079000202A06DBCB17203A41FA02F043EAE07345
:1007A00006E041FA02F3D040C2F120029140084332
:1007B0001946704710B5141E73F1000408DA401C86
:1007C00041F1000192185B411A4301D120F0010070
:1007D00010BD2DE9F04D92469B4611B1B1FA81F260
:1007E00002E0B0FA80F220329046FFF7E8FD0446BE
:1007F0000F4640EA0A0041EA0B0153465A460843B5
:1008000013D0114653EA010019D0C8F140025046F6
:10081000FFF7E4FD05460E46504659464246FFF7AF
:10082000CEFD084305D0012004E020463946BDE84E
:10083000F08D0020054346EAE0762C4337430A98C2
:100840006305E40AA0EB08000022FD0A44EA4754CD
:100850000A3002D500200146E9E701051019694177
:10086000DDE9084500196941BDE8F04DA2E7000047
:1008700080B5002000F008F947F6FF71401A40F2F9
:100880001801C2F2004108600A684AF2D460CFF64B
:10089000FF7000EB8200888080BD00000000000037
:1008A00080B582B08DF807009DF8070048B9FFE7D2
:1008B0000020C5F602004FF40061002200F078FB32
:1008C00000E0FFE7022000F037F902B080BD000031
:1008D00080B584B040F20040C5F60200019080214E
:1008E0000291002200F064FB0220039000F024F942
:1008F00001980299012200F05BFB039800F01CF9BB
:1009000004B080BD0000000080B584B040F200401B
:10091000C5F60200019080210291012200F048FBFF
:100920000220039000F008F901980299002200F0DB
:100930003FFB039800F000F904B080BD0000000008
:1009400080B584B00020C5F6020002900821009115
:100950000122039200F02CFB0298039A114600F04A
:1009600027FB039800F02CF90099029800220192CD
:1009700000F01EFB502000F023F9019A0298039921
:1009800000F016FB039800F01BF90298039A114639
:1009900000F00EFB04B080BD80B582B000F0DCF842
:1009A000FFF7CEFFFFF794FF022000F015F80020BC
:1009B0000190FFF775FF9120202100F09DF888201D
:1009C000012100F099F88A207F2100F095F8019824
:1009D00000F002F802B080BD80B584B08DF80F0041
:1009E0009DF80F00B0B9FFE70020C5F602004FF4F4
:1009F00000410022029200F0DBFA029A40F200402D
:100A0000C5F602004FF4007100F0D2FA022000F0A7
:100A100093F836E09DF80F00012815D1FFE700207C
:100A2000C5F602004FF40041002200F0C1FA40F286
:100A30000040C5F602004FF40071012200F0B8FA40
:100A4000022000F079F81BE09DF80F00022816D173
:100A5000FFE70020C5F602004FF400410122019299
:100A600000F0A6FA019A40F20040C5F602004FF4E9
:100A7000007100F09DFA022000F05EF8FFE7FFE74A
:100A8000FFE704B080BD000080B582B08DF807009C
:100A90009DF80700FFF704FF00F012F8FFF734FF9E
:100AA00005F03AFE0002009005F036FE014600987F
:100AB00008440090FFF70CFF009802B080BD0000D2
:100AC00080B582B00020C5F602000090012201929C
:100AD000114600F06DFA00980199002200F068FAC2
:100AE0000A2000F029F80098019A114600F060FAF7
:100AF00002B080BD0000000080B582B08DF8070014
:100B00008DF806100220FFF767FFFFF7FDFE9DF846
:100B1000070005F049FEFFF7DBFE032000F00CF8AC
:100B2000FFF7F2FE9DF8060005F03EFEFFF7D0FE4F
:100B300002B080BD0000000082B0019001980090DA
:100B4000FFE7009820B1FFE7009801380090F8E730
:100B500002B070470000000040F21801C2F20041EC
:100B6000002008608880C88008724872C8600882C7
:100B70004882486188617047FFE7FEE70000000097
:100B8000704700000000000081B0EFF3108072B6E3
:100B90000090FFE7FEE7000044F60C01C5F60201F5
:100BA000086840F002000860FFE744F60400C5F65C
:100BB000020000688004002801D4FFE7F5E77047D1
:100BC00080B584B0039000F00BFA02900398019076
:100BD0000198013048B1FFE740F21000C2F2004036
:100BE0000178019808440190FFE7FFE700F0F8F969
:100BF0000299401A0199884201D2FFE7F6E704B052
:100C000080BD0000000000008FB00E900D9100200C
:100C10000C908020C5F600000990FFE70D98006851
:100C20000C99C840002800F0C181FFE70D980068CA
:100C30000C9A0121914008400B900B98002800F07D
:100C4000B181FFE70D98406800F00300012807D04C
:100C5000FFE70D98406800F0030002282FD1FFE75E
:100C60000E9880680A900C984100032000FA01F168
:100C70000A9888430A900D98C0680C99490000FAB8
:100C800001F10A9808430A900A980E9988600E9814
:100C900040680A900C99012000FA01F10A988843F3
:100CA0000A900D984068C0F300100C9900FA01F109
:100CB0000A9808430A900A980E994860FFE70D9831
:100CC000406800F00300032818D0FFE70E98C068C2
:100CD0000A900C984100032000FA01F10A98884319
:100CE0000A900D9880680C99490000FA01F10A9861
:100CF00008430A900A980E99C860FFE70D9840686B
:100D000000F00300022826D1FFE70E980C996FF03F
:100D1000030202EA51010844006A0A900C9800F0AC
:100D2000070081000F2000FA01F10A9888430A9019
:100D30000D9800690C9901F00701890000FA01F192
:100D40000A9808430A900A980E990C9B02EA5302EB
:100D500011440862FFE70E9800680A900C98410061
:100D6000032000FA01F10A9888430A900D98406820
:100D700000F003000C99490000FA01F10A980843B9
:100D80000A900A980E9908600D98807980070028CB
:100D900000F00781FFE7FFE744F2F440C5F60200E8
:100DA000016841F002010160006800F00200089053
:100DB0000898FFE70C9820F0030040F20841C5F6C0
:100DC000000140580A900C9800F0030081000F20A9
:100DD00000FA01F10A9888430A900E980021C5F69E
:100DE0000201884203D1FFE7002007906CE00E98D3
:100DF00040F20041C5F60201884203D1FFE701201D
:100E000006905EE00E9840F60001C5F602018842A9
:100E100003D1FFE70220059050E00E9840F6004114
:100E2000C5F60201884203D1FFE70320049042E0A7
:100E30000E9841F20001C5F60201884203D1FFE796
:100E40000420039034E00E9841F20041C5F60201FF
:100E5000884203D1FFE70520029026E00E9841F674
:100E60000001C5F60201884203D1FFE70620019088
:100E700018E00E9841F60041C5F60201884203D100
:100E8000FFE7072000900AE00E9942F20042C5F603
:100E900002020A20914208BF09200090FFE7009853
:100EA0000190FFE701980290FFE702980390FFE7A7
:100EB00003980490FFE704980590FFE705980690D3
:100EC000FFE706980790FFE707980C9901F00301E8
:100ED000890000FA01F10A9808430A900A980C99CF
:100EE00021F0030140F20842C5F6000288504FF09D
:100EF000B04000680A900B990A9888430A900D98B0
:100F00008079C006002805D5FFE70B990A980843A9
:100F10000A90FFE70A984FF0B04108600420C5F638
:100F2000000000680A900B990A9888430A900D986F
:100F300080798006002805D5FFE70B990A980843B9
:100F40000A90FFE70A980421C5F600010860099895
:100F500040680A900B990A9888430A900D98807906
:100F60008007002805D5FFE70B990A9808430A90E7
:100F7000FFE70A9809994860099800680A900B9958
:100F80000A9888430A900D988079C00728B1FFE736
:100F90000B990A9808430A90FFE70A980999086094
:100FA000FFE7FFE70C9801300C9037E60FB0704771
:100FB00082B00190ADF802108DF801209DF801007B
:100FC00028B1FFE7BDF802000199886105E0BDF88E
:100FD0000200000401998861FFE702B07047000039
:100FE00040F2D410C2F200400068704700000000D8
:100FF00040F21000C2F20040027840F2D411C2F276
:1010000000410868104408607047000000000000BC
:1010100080B582B0032000F023F901F0D9FE44F23C
:101020001842C5F602021168C1F3032349F2246194
:10103000C0F60001CB5C03F01F03D840009000987D
:10104000126802F00F02895C01F01F01C84040F2F3
:101050000C01C2F200410860009840F20801C2F29F
:10106000004108600F2000F013F820B1FFE70120D5
:101070008DF8070005E000F0BBF800208DF80700B0
:10108000FFE79DF8070002B080BD000000000000EF
:1010900080B582B0009040F21000C2F200400078AB
:1010A00020B9FFE701208DF8070030E040F208008A
:1010B000C2F20040006840F21001C2F200410A781A
:1010C0004FF47A71B1FBF2F1B0FBF1F003F018FBD1
:1010D00020B1FFE701208DF8070018E000980F28E5
:1010E0000DD8FFE700994FF0FF30002200F0A0F884
:1010F000009840F21401C2F20041086003E00120B0
:101100008DF8070003E000208DF80700FFE79DF849
:10111000070002B080BD000010B581B000900098BB
:1011200040784EF69851CEF2000108604EF6A0517C
:10113000CEF20001086820F00100086000984068C5
:101140004EF69C52CEF200021060DDF800E09EF8F0
:101150000C0000079EF80B2040EA02609EF8002079
:101160009EF808309EF809C09EF80A4040EAC44044
:101170009EF80D4040EA84409EF80E4040EA44400C
:101180009EF80FE040EA0E4040EA0C2040EA43009F
:101190001043086001B010BDBFF35F8F4EF62451BD
:1011A000CEF20001086820F4803008604EF69451B9
:1011B000CEF200010020086070470000000000002F
:1011C00081B00090009840F001004EF69451CEF2AC
:1011D000000108604EF62451CEF20001086840F488
:1011E00080300860BFF34F8FBFF36F8F01B070473F
:1011F00081B0FFE744F2F440C5F60200016841F017
:1012000002010160006800F0020000900098FFE712
:1012100001B070470000000080B582B0ADF8060054
:10122000BDF9060007F0BCF802B080BD0000000068
:1012300080B586B0ADF816000491039207F0C8F8A7
:101240000290BDF91600019002980499039A04F0E7
:10125000B3FF0146019807F0C3F806B080BD000057
:1012600080B582B00190019807F0DEF802B080BD31
:1012700080B584B0029044F60C00C5F60200006808
:1012800000F004010020B0EB910F13D1FFE744F60A
:101290000C00C5F60200006800F0070002998842C1
:1012A00004D0FFE701208DF80F002EE000208DF81C
:1012B0000F002AE044F60C01C5F60201086820F090
:1012C0000700029A10430860FFF78AFE0190FFE7CB
:1012D00044F60400C5F60200006800F40051002046
:1012E000B0EB513F0DD1FFE7FFF77AFE0199401AAD
:1012F000B0F57A7F04D9FFE701208DF80F0004E0F4
:10130000E6E700208DF80F00FFE79DF80F0004B01E
:1013100080BD00000000000080B501F005FD44F232
:101320002041C5F602010968C1F3021249F22461A5
:10133000C0F60001895C01F01F01C84080BD0000BB
:1013400088B0079044F22840C5F60200016801F019
:10135000030106910068C0F30530059044F22C406B
:10136000C5F602000068C0F300100490049844F22F
:101370003C41C5F60201096889B2C908484300EE3C
:10138000100AB8EE400A8DED020A0598002800F018
:101390001B81FFE70698009048B1FFE700980128FD
:1013A00069D0FFE70098022800F08980ABE044F2A2
:1013B0000040C5F60200006800F020010020B0EBFC
:1013C000511F33D0FFE744F20040C5F60200006829
:1013D000C0F3C10149F20000C0F2D030C840039010
:1013E0009DED030AB8EE400A9DED051AB8EE411ACC
:1013F00080EE010A44F23840C5F6020000686FF33F
:101400005F2001EE100AB8EE411A9DED022A9FED11
:10141000743A82EE032A31EE021AB7EE002A31EE58
:10142000021A20EE010A8DED010A23E09DED050A66
:10143000B8EE401A9FED6C0A80EE010A44F2384083
:10144000C5F6020000686FF35F2001EE100AB8EEE7
:10145000411A9DED022A9FED623A82EE032A31EE97
:10146000021AB7EE002A31EE021A20EE010A8DEDC3
:10147000010AFFE76BE09DED050AB8EE401A9FED0B
:10148000590A80EE010A44F23840C5F602000068AD
:101490006FF35F2001EE100AB8EE411A9DED022AAB
:1014A0009FED4F3A82EE032A31EE021AB7EE002A80
:1014B00031EE021A20EE010A8DED010A47E09DEDA2
:1014C000050AB8EE401A9FED450A80EE010A44F283
:1014D0003840C5F6020000686FF35F2001EE100A85
:1014E000B8EE411A9DED022A9FED3D3A82EE032AA5
:1014F00031EE021AB7EE002A31EE021A20EE010A8E
:101500008DED010A23E09DED050AB8EE401A9FED2E
:10151000350A80EE010A44F23840C5F60200006840
:101520006FF35F2001EE100AB8EE411A9DED022A1A
:101530009FED2B3A82EE032A31EE021AB7EE002A13
:1015400031EE021A20EE010A8DED010AFFE79DED52
:10155000010A44F23840C5F60200016889B2490A1E
:1015600001EE101AB8EE411AB7EE002A31EE021A57
:1015700080EE010A0799BCEEC00A81ED000A9DEDDC
:10158000010A0168C1F3064101EE101AB8EE411AD2
:1015900031EE021A80EE010A0799BCEEC00A81ED15
:1015A000010A9DED010A0068C0F3066001EE100A11
:1015B000B8EE411A31EE021A80EE010A0798BCEE2D
:1015C000C00A80ED020A07E0079900200860079929
:1015D000486007998860FFE708B0704720BCBE4BA1
:1015E000000000460024744A0024744C00000000EF
:1015F00088B0079044F22840C5F60200016801F067
:10160000030106910068C0F30550059044F22C4098
:10161000C5F602000068C0F300200490049844F26C
:101620004441C5F60201096889B2C908484300EE81
:10163000100AB8EE400A8DED020A0598002800F065
:101640001B81FFE70698009048B1FFE7009801284A
:1016500069D0FFE70098022800F08980ABE044F2EF
:101660000040C5F60200006800F020010020B0EB49
:10167000511F33D0FFE744F20040C5F60200006876
:10168000C0F3C10149F20000C0F2D030C84003905D
:101690009DED030AB8EE400A9DED051AB8EE411A19
:1016A00080EE010A44F24040C5F6020000686FF384
:1016B0005F2001EE100AB8EE411A9DED022A9FED5F
:1016C000743A82EE032A31EE021AB7EE002A31EEA6
:1016D000021A20EE010A8DED010A23E09DED050AB4
:1016E000B8EE401A9FED6C0A80EE010A44F24040C9
:1016F000C5F6020000686FF35F2001EE100AB8EE35
:10170000411A9DED022A9FED623A82EE032A31EEE4
:10171000021AB7EE002A31EE021A20EE010A8DED10
:10172000010AFFE76BE09DED050AB8EE401A9FED58
:10173000590A80EE010A44F24040C5F602000068F2
:101740006FF35F2001EE100AB8EE411A9DED022AF8
:101750009FED4F3A82EE032A31EE021AB7EE002ACD
:1017600031EE021A20EE010A8DED010A47E09DEDEF
:10177000050AB8EE401A9FED450A80EE010A44F2D0
:101780004040C5F6020000686FF35F2001EE100ACA
:10179000B8EE411A9DED022A9FED3D3A82EE032AF2
:1017A00031EE021AB7EE002A31EE021A20EE010ADB
:1017B0008DED010A23E09DED050AB8EE401A9FED7C
:1017C000350A80EE010A44F24040C5F60200006886
:1017D0006FF35F2001EE100AB8EE411A9DED022A68
:1017E0009FED2B3A82EE032A31EE021AB7EE002A61
:1017F00031EE021A20EE010A8DED010AFFE79DEDA0
:10180000010A44F24040C5F60200016889B2490A63
:1018100001EE101AB8EE411AB7EE002A31EE021AA4
:1018200080EE010A0799BCEEC00A81ED000A9DED29
:10183000010A0168C1F3064101EE101AB8EE411A1F
:1018400031EE021A80EE010A0799BCEEC00A81ED62
:10185000010A9DED010A0068C0F3066001EE100A5E
:10186000B8EE411A31EE021A80EE010A0798BCEE7A
:10187000C00A80ED020A07E0079900200860079976
:10188000486007998860FFE708B0704720BCBE4BEE
:10189000000000460024744A0024744C000000003C
:1018A00080B59AB0189000208DF857008DF856003A
:1018B0001898C0780007002848D5FFE71898406EB0
:1018C000149078B1FFE71498B0F5801F13D0FFE7AC
:1018D0001498B0F5001F16D0FFE71498B0F5401F1C
:1018E00019D019E044F22C41C5F60201086840F411
:1018F0000030086014E018980830022104F098FCC9
:101900008DF857000CE018982830022104F078FD7B
:101910008DF8570004E003E001208DF85700FFE741
:101920009DF8570060B9FFE744F25041C5F6020147
:10193000086820F44010189A526E1043086004E0C2
:101940009DF857008DF85600FFE7FFE7189840789C
:10195000C007002840D0FFE71898806D1390042836
:1019600020D81399DFE801F0030C141C1D0044F289
:101970002C41C5F60201086840F40030086015E00B
:1019800018980830002104F053FC8DF857000DE042
:1019900018982830002104F033FD8DF8570005E039
:1019A00004E003E001208DF85700FFE79DF85700A1
:1019B00060B9FFE744F25041C5F60201086820F023
:1019C0000700189A926D1043086004E09DF85700D4
:1019D0008DF85600FFE7FFE7189840784007002889
:1019E00056D5FFE71898D0F8A4001290C8B1FFE7C9
:1019F0001298B0F5001F1DD0FFE71298B0F5800FC8
:101A000020D0FFE71298B0F5C00F23D0FFE712985F
:101A1000B0F5000F1FD0FFE71298B0F5200F1BD0D4
:101A20001BE044F22C41C5F60201086840F4003086
:101A3000086016E018980830002104F0F9FB8DF8D2
:101A400057000EE018982830002104F0D9FC8DF8DA
:101A5000570006E005E004E003E001208DF85700A0
:101A6000FFE79DF8570068B9FFE744F25841C5F613
:101A70000201086820F46000189AD2F8A4201043EC
:101A8000086004E09DF857008DF85600FFE7FFE777
:101A9000189840780007002856D5FFE71898D0F826
:101AA000A8001190C8B1FFE71198B0F1807F1DD058
:101AB000FFE71198B0F1007F20D0FFE71198B0F157
:101AC000407F23D0FFE71198B0F1806F1FD0FFE770
:101AD0001198B0F1A06F1BD01BE044F22C41C5F669
:101AE0000201086840F40030086016E018980830D9
:101AF000002104F09DFB8DF857000EE01898283067
:101B0000002104F07DFC8DF8570006E005E004E0BC
:101B100003E001208DF85700FFE79DF8570068B9F2
:101B2000FFE744F25841C5F60201086820F0E06082
:101B3000189AD2F8A8201043086004E09DF85700D6
:101B40008DF85600FFE7FFE71898C0788007002857
:101B50003ED5FFE71898C06C1090F0B1FFE71098E1
:101B6000102808D0FFE7109820280DD0FFE7109824
:101B7000302811D012E044F22C41C5F60201086869
:101B800040F4003008600DE018980830022104F09D
:101B90004FFB8DF8570005E004E003E001208DF8CD
:101BA0005700FFE79DF8570060B9FFE744F24C414A
:101BB000C5F60201086820F03000189AD26C104374
:101BC000086004E09DF857008DF85600FFE7FFE736
:101BD00018984078C00600284ED5FFE71898C06DC9
:101BE0000F90A0B1FFE70F98B0F5805F18D0FFE726
:101BF0000F98B0F5005F1BD0FFE70F98B0F5405F7E
:101C00001ED0FFE70F98B0F5804F1AD01AE044F2CB
:101C10002C41C5F60201086840F40030086015E068
:101C200018980830002104F003FB8DF857000DE0F0
:101C300018982830002104F0E3FB8DF8570005E0E8
:101C400004E003E001208DF85700FFE79DF85700FE
:101C500060B9FFE744F25041C5F60201086820F47C
:101C6000E040189AD26D1043086004E09DF85700D8
:101C70008DF85600FFE7FFE71898407880060028A7
:101C80004CD5FFE71898006E0E90C8B1FFE70E988C
:101C9000B0F5803F15D0FFE70E98B0F5003F18D0A3
:101CA000FFE70E98B0F5403F1BD0FFE70E98B0F568
:101CB000802F17D0FFE70E98B0F5A02F13D013E0B8
:101CC00016E018980830012104F0B2FA8DF8570098
:101CD0000EE018982830012104F092FB8DF857008F
:101CE00006E005E004E003E001208DF85700FFE77F
:101CF0009DF8570060B9FFE744F25041C5F6020174
:101D0000086820F4E020189A126E1043086004E07E
:101D10009DF857008DF85600FFE7FFE718984078C8
:101D2000400600284ED5FFE71898D0F8AC000D907B
:101D3000C8B1FFE70D98B0F1805F15D0FFE70D98AF
:101D4000B0F1005F18D0FFE70D98B0F1405F1BD0F5
:101D5000FFE70D98B0F1804F17D0FFE70D98B0F175
:101D6000A04F13D013E016E018980830012104F0BA
:101D70005FFA8DF857000EE018982830012104F022
:101D80003FFB8DF8570006E005E004E003E001208A
:101D90008DF85700FFE79DF8570068B9FFE744F258
:101DA0005841C5F60201086820F0E040189AD2F8C0
:101DB000AC201043086004E09DF857008DF85600F1
:101DC000FFE7FFE718984078000600283BD5FFE7BB
:101DD0001898C06E0C90D8B1FFE70C98B0F1805FF6
:101DE00005D0FFE70C98B0F1005F09D011E044F294
:101DF0002C41C5F60201086840F4003008600CE090
:101E000018980830012104F013FA8DF8570004E007
:101E100003E001208DF85700FFE79DF8570060B9F7
:101E2000FFE744F25041C5F60201086820F0405037
:101E3000189AD26E1043086004E09DF857008DF8A0
:101E40005600FFE7FFE71898C078C007002837D092
:101E5000FFE71898806C0B90032817D80B99DFE8E0
:101E600001F014020B1344F22C41C5F6020108687C
:101E700040F4003008600DE018980830022104F0AA
:101E8000D7F98DF8570005E004E003E001208DF854
:101E90005700FFE79DF8570060B9FFE744F24C4157
:101EA000C5F60201086820F00300189A926C1043EE
:101EB000086004E09DF857008DF85600FFE7FFE743
:101EC000189880784006002840F1B480FFE744F677
:101ED0000001C5F60201086840F480700860FFF751
:101EE0007FF81690FFE744F60000C5F60200006890
:101EF000C00500280CD4FFE7FFF772F81699401AC6
:101F0000652804D3FFE703208DF8570000E0EAE7D7
:101F10009DF85700002840F08780FFE744F27040AA
:101F2000C5F60200006800F440701899D1F8B010AE
:101F300001F44071884213D0FFE744F27041C5F6C6
:101F40000201086820F440701790086840F480305F
:101F50000860086820F48030086017980860FFE780
:101F60001898D0F8B000B0F5807F1FD1FFE7FFF7D9
:101F700037F81690FFE744F27040C5F6020000689B
:101F800000F002010020B0EB510F0ED1FFE7FFF788
:101F900027F81699401A41F28931884204D3FFE7A5
:101FA00003208DF8570000E0E5E7FFE79DF85700B4
:101FB000A0BBFFE7FFE71898D0F8B00000F440702E
:101FC000B0F5407F13D1FFE744F21041C5F602019E
:101FD000086820F47C50189AD2F8B0204FF6F043ED
:101FE000C0F6FF731A4040EA1210086008E044F29D
:101FF0001041C5F60201086820F47C500860FFE734
:102000001898D0F8B0206FF31F3244F27041C5F633
:102010000201086810430860FFE704E09DF85700DC
:102020008DF85600FFE704E09DF857008DF8560044
:10203000FFE7FFE718980068C007002800F04C8011
:10204000FFE71898806F0A9028282BD80A99DFE8B4
:1020500001F0152929292929292916292929292978
:1020600029291E29292929292929262929292929EE
:1020700029292729292929292929280016E01898FA
:102080000830012104F0D4F88DF857000EE01898BC
:102090002830012104F0B4F98DF8570006E005E07E
:1020A00004E003E001208DF85700FFE79DF857009A
:1020B00060B9FFE744F25441C5F60201086820F018
:1020C0003800189A926F1043086004E09DF857009A
:1020D0008DF85600FFE7FFE7189800788007002882
:1020E00039D5FFE71898406F0990052819D8099944
:1020F000DFE801F003040C14151616E018980830F8
:10210000012104F095F88DF857000EE0189828305A
:10211000012104F075F98DF8570006E005E004E0B0
:1021200003E001208DF85700FFE79DF8570060B9E4
:10213000FFE744F25441C5F60201086820F00700A9
:10214000189A526F1043086004E09DF857008DF80C
:102150005600FFE7FFE718980078400700283BD5B6
:10216000FFE71898D0F890000890052819D808992A
:10217000DFE801F003040C14151616E01898083077
:10218000012104F055F88DF857000EE0189828301A
:10219000012104F035F98DF8570006E005E004E070
:1021A00003E001208DF85700FFE79DF8570068B95C
:1021B000FFE744F25841C5F60201086820F0070025
:1021C000189AD2F890201043086004E09DF8570058
:1021D0008DF85600FFE7FFE7189800788006002882
:1021E0004ED5FFE71898D0F88C000790C8B1FFE7EC
:1021F0000798B0F1805F15D0FFE70798B0F1005F56
:1022000018D0FFE70798B0F1405F1BD0FFE70798B1
:10221000B0F1804F17D0FFE70798B0F1A04F13D06F
:1022200013E016E018980830002104F001F88DF84A
:1022300057000EE018982830022104F0E1F88DF8DC
:10224000570006E005E004E003E001208DF85700A8
:10225000FFE79DF8570068B9FFE744F25441C5F61F
:102260000201086820F0E040189AD2F88C20104350
:10227000086004E09DF857008DF85600FFE7FFE77F
:1022800018980078400600284ED5FFE71898D0F837
:1022900098000690C8B1FFE70698B0F5806F15D09A
:1022A000FFE70698B0F5006F18D0FFE70698B0F585
:1022B000406F1BD0FFE70698B0F5805F17D0FFE7AF
:1022C0000698B0F5A05F13D013E016E01898083018
:1022D000002103F0ADFF8DF857000EE0189828306C
:1022E000022104F08DF88DF8570006E005E004E0C7
:1022F00003E001208DF85700FFE79DF8570068B90B
:10230000FFE744F25841C5F60201086820F4E050A6
:10231000189AD2F898201043086004E09DF85700FE
:102320008DF85600FFE7FFE71898007800060028B0
:102330004ED5FFE71898D0F89C000590C8B1FFE78C
:102340000598B0F5005F15D0FFE70598B0F5804F10
:1023500018D0FFE70598B0F5C04F1BD0FFE70598F0
:10236000B0F5004F17D0FFE70598B0F5204F13D018
:1023700013E016E018980830002103F059FF8DF89B
:1023800057000EE018982830022104F039F88DF833
:10239000570006E005E004E003E001208DF8570057
:1023A000FFE79DF8570068B9FFE744F25841C5F6CA
:1023B0000201086820F46040189AD2F89C2010436B
:1023C000086004E09DF857008DF85600FFE7FFE72E
:1023D000189800780007002820D5FFE71898D0F853
:1023E0008000B0F5805F0CD1FFE7189828300221FB
:1023F00004F006F820B1FFE701208DF85600FFE752
:10240000FFE744F25441C5F60201086820F4405049
:10241000189AD2F8802010430860FFE718980078D7
:10242000C006002820D5FFE71898D0F89400B0F532
:10243000807F0CD1FFE718982830022103F0E0FFDD
:1024400020B1FFE701208DF85600FFE7FFE744F2D7
:102450005841C5F60201086820F44070189AD2F875
:10246000942010430860FFE7189880780007002840
:102470003CD5FFE71898D0F8A000049050B1FFE7D2
:102480000498B0F5803F0DD0FFE70498B0F5003F09
:1024900010D010E018980830002103F0C9FE8DF824
:1024A00057000CE018982830022103F0A9FF8DF89E
:1024B000570004E003E001208DF85700FFE79DF886
:1024C000570068B9FFE744F25841C5F602010868B1
:1024D00020F44030189AD2F8A0201043086004E09D
:1024E0009DF857008DF85600FFE7FFE718988078B1
:1024F000400700283FD5FFE71898D0F884000390E4
:10250000B0F5801F0AD0FFE70398B0F5001F0ED08A
:10251000FFE70398B0F5401F11D011E044F22C41C1
:10252000C5F60201086840F4003008600CE0189815
:102530002830012103F064FF8DF8570004E003E028
:1025400001208DF85700FFE79DF8570068B9FFE7B5
:1025500044F25441C5F60201086820F44010189A6C
:10256000D2F884201043086004E09DF857008DF8ED
:102570005600FFE7FFE718988078C007A8B3FFE789
:102580001898006D029028B1FFE70298B0F5803FDF
:1025900009D010E044F22C41C5F60201086840F46D
:1025A000003008600BE018980830022103F040FE6C
:1025B0008DF8570003E001208DF85700FFE79DF8E4
:1025C000570060B9FFE744F24C41C5F602010868C4
:1025D00020F48030189A126D1043086004E09DF8D2
:1025E00057008DF85600FFE7FFE71898C07880067F
:1025F00000280CD5FFE718982830022103F000FFCF
:1026000020B1FFE701208DF85600FFE7FFE718989B
:102610008078800700283AD5FFE71898C06F0190AE
:10262000D0B1FFE70198B0F5807F0AD0FFE70198AD
:10263000B0F5007F0ED0FFE70198B0F5407F0AD0DB
:102640000BE044F22C41C5F60201086840F400306A
:10265000086006E005E004E003E001208DF8570083
:10266000FFE79DF8570060B9FFE744F25441C5F613
:102670000201086820F44070189AD26F1043086075
:1026800004E09DF857008DF85600FFE7FFE7189823
:102690008078C00600280CD5FFE744F25041C5F60B
:1026A0000201086820F00040189A126F1043086079
:1026B000FFE718988078800600280CD5FFE744F2E1
:1026C0005041C5F60201086820F08070189A926E99
:1026D00010430860FFE71898C0784006002811D51D
:1026E000FFE7FFE744F21041C5F60201086820F455
:1026F000004008601898D0F8B420086810430860BB
:10270000FFE7FFE71898C078000600280CD5FFE720
:1027100044F24C41C5F60201086820F04050189A76
:10272000526D10430860FFE7189880780006002873
:102730000DD5FFE744F25441C5F60201086820F4C4
:102740004000189AD2F8882010430860FFE71898D4
:102750000079C00790B1FFE718980830002103F016
:1027600067FD8DF857009DF8570008B9FFE704E0B2
:102770009DF857008DF85600FFE7FFE7189800799D
:102780008007002812D5FFE718980830012103F0D0
:102790004FFD8DF857009DF8570008B9FFE704E09A
:1027A0009DF857008DF85600FFE7FFE7189800796D
:1027B0004007002812D5FFE718980830022103F0DF
:1027C00037FD8DF857009DF8570008B9FFE704E082
:1027D0009DF857008DF85600FFE7FFE7189800793D
:1027E0000007002812D5FFE718982830002103F0D1
:1027F00007FE8DF857009DF8570008B9FFE704E081
:102800009DF857008DF85600FFE7FFE7189800790C
:10281000C006002812D5FFE718982830012103F0E0
:10282000EFFD8DF857009DF8570008B9FFE704E069
:102830009DF857008DF85600FFE7FFE718980079DC
:102840008006002812D5FFE718982830022103F0EF
:10285000D7FD8DF857009DF8570008B9FFE704E051
:102860009DF857008DF85600FFE7FFE79DF85600EA
:1028700020B9FFE700208DF8670003E001208DF804
:102880006700FFE79DF867001AB080BD00000000F8
:1028900080B586B004900391049820B9FFE7012029
:1028A0008DF817003CE2039842F20001C5F20021C6
:1028B000096801F00F01884216D9FFE742F20000D3
:1028C000C5F20020016821F00F01039A1143016055
:1028D000006800F00F000399884204D0FFE7012050
:1028E0008DF817001CE2FFE70498007840070028E5
:1028F00019D5FFE70498006944F21841C5F60201B2
:10290000096801F0700188420CD9FFE744F21841D0
:10291000C5F60201086820F07000049A126910439D
:102920000860FFE7FFE7049800780007002819D542
:10293000FFE70498406944F21C41C5F602010968AA
:1029400001F0700188420CD9FFE744F21C41C5F642
:102950000201086820F07000049A52691043086070
:10296000FFE7FFE704980078C006002819D5FFE7C5
:102970000498806944F21C41C5F60201096801F41B
:10298000E06188420CD9FFE744F21C41C5F6020120
:10299000086820F4E060049A926910430860FFE739
:1029A000FFE7049800788006002819D5FFE704980F
:1029B000C06944F22041C5F60201096801F07001C6
:1029C00088420CD9FFE744F22041C5F602010868AD
:1029D00020F07000049AD26910430860FFE7FFE717
:1029E000049800788007002819D5FFE70498C0688C
:1029F00044F21841C5F60201096801F00F0188424E
:102A00000CD9FFE744F21841C5F60201086820F02E
:102A10000F00049AD26810430860FFE7FFE70498AC
:102A20000078C007002800F08C80FFE744F21841CE
:102A3000C5F60201086820F47060049A9268104399
:102A4000086004984068022811D1FFE744F2004072
:102A5000C5F60200006800F400310020B0EB514FD1
:102A600004D1FFE701208DF8170059E13EE00498FA
:102A70004068032811D1FFE744F20040C5F6020088
:102A8000006800F000710020B0EB516F04D1FFE747
:102A900001208DF8170043E127E0049840680128E1
:102AA00011D1FFE744F20040C5F60200006800F4CF
:102AB00080710020B0EB112F04D1FFE701208DF8C9
:102AC00017002DE110E044F20040C5F60200006856
:102AD00000F004010020B0EB910F04D1FFE70120CA
:102AE0008DF817001CE1FFE7FFE7FFE744F2104114
:102AF000C5F60201086820F00700049A52681043E6
:102B00000860FEF76DFA0190FFE744F21040C5F649
:102B10000200006800F0380004994968B0EBC10F6A
:102B20000ED0FFE7FEF75CFA0199401A41F28931B5
:102B3000884204D3FFE703208DF81700F0E0E4E7B4
:102B4000FFE7049800788007002819D5FFE704986C
:102B5000C06844F21841C5F60201096801F00F018E
:102B600088420CD2FFE744F21841C5F6020108681A
:102B700020F00F00049AD26810430860FFE7FFE7D7
:102B8000039842F20001C5F20021096801F00F012B
:102B9000884216D2FFE742F20000C5F20020016829
:102BA00021F00F01039A11430160006800F00F004B
:102BB0000399884204D0FFE701208DF81700AFE0A9
:102BC000FFE7049800784007002819D5FFE704982C
:102BD000006944F21841C5F60201096801F070016C
:102BE00088420CD2FFE744F21841C5F6020108689A
:102BF00020F07000049A126910430860FFE7FFE7B5
:102C0000049800780007002819D5FFE70498406968
:102C100044F21C41C5F60201096801F070018842C6
:102C20000CD2FFE744F21C41C5F60201086820F00F
:102C30007000049A526910430860FFE7FFE70498A8
:102C40000078C006002819D5FFE70498806944F28F
:102C50001C41C5F60201096801F4E06188420CD20A
:102C6000FFE744F21C41C5F60201086820F4E06069
:102C7000049A926910430860FFE7FFE70498007820
:102C80008006002819D5FFE70498C06944F2204166
:102C9000C5F60201096801F0700188420CD2FFE715
:102CA00044F22041C5F60201086820F07000049A41
:102CB000D26910430860FFE7FFE700F089F844F2AB
:102CC0001842C5F602021168C1F3032349F22461D8
:102CD000C0F60001CB5C03F01F03D84000900098C1
:102CE000126802F00F02895C01F01F01C84040F237
:102CF0000C01C2F200410860009840F20801C2F2E3
:102D00000041086040F21400C2F200400068FEF783
:102D1000BFF98DF80B009DF80B008DF81700FFE749
:102D20009DF8170006B080BD80B582B000F050F865
:102D300044F21842C5F602021168C1F3032349F2B6
:102D40002461C0F60001CB5C03F01F03D840019062
:102D50000198126802F00F02895C01F01F0120FA4D
:102D600001F140F20C00C2F200400160019940F212
:102D70000802C2F200421160006802B080BD00008B
:102D800080B5FFF7D1FF44F21C41C5F60201096886
:102D9000C1F3021249F22461C0F60001895C01F01E
:102DA0001F01C84080BD000080B5FFF7BDFF44F2A1
:102DB0001C41C5F602010968C1F3022249F22461EF
:102DC000C0F60001895C01F01F01C84080BD000011
:102DD0008AB044F21040C5F60200006800F03800E6
:102DE00001460191182800F269810199DFE811F08C
:102DF00019006601660166016601660166016601E9
:102E00003A006601660166016601660166016601B7
:102E100040006601660166016601660166016601A1
:102E2000460044F20040C5F60200006800F02001B0
:102E30000020B0EB511F0ED0FFE744F20040C5F672
:102E400002000068C0F3C10149F20000C0F2D030B6
:102E5000C840029005E049F20000C0F2D030029074
:102E6000FFE731E140F60010C0F23D0002902BE197
:102E700047F64000C0F27D10029025E144F2284060
:102E8000C5F60200016801F0030108910068C0F373
:102E90000510079044F22C40C5F60200006800F0CF
:102EA00001000690069844F23441C5F60201096813
:102EB00089B2C908484300EE100AB8EE400A8DED09
:102EC000040A0798002800F0F580FFE708980090B2
:102ED00048B1FFE70098012869D0FFE70098022871
:102EE00000F08980ABE044F20040C5F602000068C3
:102EF00000F020010020B0EB511F33D0FFE744F277
:102F00000040C5F602000068C0F3C10149F20000AC
:102F1000C0F2D030C84005909DED050AB8EE400AD9
:102F20009DED071AB8EE411A80EE010A44F23040D6
:102F3000C5F6020000686FF35F2001EE100AB8EEDC
:102F4000411A9DED042A9FED633A82EE032A31EE89
:102F5000021AB7EE002A31EE021A20EE010A8DEDB8
:102F6000030A23E09DED070AB8EE401A9FED5B0AC5
:102F700080EE010A44F23040C5F6020000686FF3AB
:102F80005F2001EE100AB8EE411A9DED042A9FED74
:102F9000513A82EE032A31EE021AB7EE002A31EEE0
:102FA000021A20EE010A8DED030AFFE76BE09DEDAA
:102FB000070AB8EE401A9FED480A80EE010A44F273
:102FC0003040C5F6020000686FF35F2001EE100A82
:102FD000B8EE411A9DED042A9FED3E3A82EE032A97
:102FE00031EE021AB7EE002A31EE021A20EE010A83
:102FF0008DED030A47E09DED070AB8EE401A9FEDFC
:10300000340A80EE010A44F23040C5F6020000683E
:103010006FF35F2001EE100AB8EE411A9DED042A0D
:103020009FED2C3A82EE032A31EE021AB7EE002A07
:1030300031EE021A20EE010A8DED030A23E09DED28
:10304000070AB8EE401A9FED240A80EE010A44F206
:103050003040C5F6020000686FF35F2001EE100AF1
:10306000B8EE411A9DED042A9FED1A3A82EE032A2A
:1030700031EE021AB7EE002A31EE021A20EE010AF2
:103080008DED030AFFE744F23040C5F60200006808
:1030900081B2012000EB512009909DED030A9DEDC6
:1030A000091AB8EE411A80EE010ABCEEC00A8DED95
:1030B000020A02E000200290FFE705E040F600105F
:1030C000C0F23D000290FFE702980AB0704700BFCF
:1030D00020BCBE4B000000460024744A0024744CFF
:1030E00080B58CB00A900A9828B9FFE701208DF8C6
:1030F0002F0000F001BD0A980078C007002800F0FA
:10310000B980FFE744F21040C5F60200006800F005
:103110003800069044F22840C5F602000068059089
:10312000069810280AD0FFE7069818281CD1FFE758
:10313000059800F00300022816D1FFE744F2004092
:10314000C5F60200006800F400310020B0EB514FDA
:1031500009D0FFE70A98406828B9FFE701208DF8F9
:103160002F0000F0C9BC84E0FFE70A984068B0F582
:10317000803F09D1FFE744F20041C5F6020108682B
:1031800040F48030086032E00A98406868B9FFE790
:1031900044F20041C5F60201086820F4803008605E
:1031A000086820F48020086020E00A984068B0F5A4
:1031B000A02F0DD1FFE744F20041C5F602010868D7
:1031C00040F480200860086840F4803008600CE01B
:1031D00044F20041C5F60201086820F4803008601E
:1031E000086820F480200860FFE7FFE7FFE7FFE7BB
:1031F0000A984068F0B1FFE7FDF7F2FE0990FFE79B
:1032000044F20040C5F60200006800F400310020DE
:10321000B0EB514F0DD1FFE7FDF7E2FE0999401ADF
:10322000652805D3FFE703208DF82F0000F064BC6C
:10323000E6E71DE0FDF7D4FE0990FFE744F2004009
:10324000C5F60200006800F400310020B0EB514FD9
:103250000DD0FFE7FDF7C4FE0999401A652805D394
:10326000FFE703208DF82F0000F046BCE6E7FFE7FC
:10327000FFE7FFE70A9800788007002840F1C58043
:10328000FFE744F21040C5F60200006800F0380085
:10329000049044F22840C5F60200006803900498A8
:1032A00050B1FFE70498182850D1FFE79DF80C00B3
:1032B000800700284AD1FFE744F20040C5F602002B
:1032C000006800F004010020B0EB910F09D0FFE787
:1032D0000A98C06828B9FFE701208DF82F0000F098
:1032E0000BBC44F20041C5F60201086820F0190049
:1032F0000A9AD26810430860FDF772FE0990FFE752
:1033000044F20040C5F60200006800F0040100200D
:10331000B0EB910F0CD1FFE7FDF762FE0999401A5F
:10332000032804D3FFE703208DF82F00E4E3E7E749
:1033300044F20441C5F60201086820F0FE400A9AF2
:10334000126940EA02600860FFE75DE00A98C06821
:10335000A0B3FFE744F20041C5F60201086820F07F
:1033600019000A9AD26810430860FDF739FE0990E7
:10337000FFE744F20040C5F60200006800F00401D7
:103380000020B0EB910F0CD1FFE7FDF729FE099962
:10339000401A032804D3FFE703208DF82F00ABE386
:1033A000E7E744F20441C5F60201086820F0FE4058
:1033B0000A9A126940EA0260086024E044F200417F
:1033C000C5F60201086820F001000860FDF708FE5C
:1033D0000990FFE744F20040C5F60200006800F0E3
:1033E00004010020B0EB910F0CD0FFE7FDF7F8FDD2
:1033F0000999401A032804D3FFE703208DF82F0012
:103400007AE3E7E7FFE7FFE7FFE70A980078C006FF
:10341000002840F1A080FFE744F21040C5F602000A
:10342000006800F03800029044F22840C5F602001F
:1034300000680190029808280AD0FFE7029818282F
:103440002BD1FFE7019800F00300012825D1FFE709
:1034500044F20040C5F60200006800F480710020CC
:10346000B0EB112F09D0FFE70A98C069802804D07B
:10347000FFE701208DF82F003EE3FFE744F20C4107
:10348000C5F60201086820F07C500A9A126A40EAE8
:1034900002600860FFE7FFE75CE00A98C06998B344
:1034A000FFE744F20041C5F60201086840F08000E1
:1034B0000860FDF795FD0990FFE744F20040C5F66E
:1034C0000200006800F480710020B0EB112F0CD1D5
:1034D000FFE7FDF785FD0999401A032804D3FFE7AC
:1034E00003208DF82F0007E3E7E7FFE744F20C41E4
:1034F000C5F60201086820F07C500A9A126A40EA78
:1035000002600860FFE724E044F20041C5F60201D2
:10351000086820F080000860FDF762FD0990FFE771
:1035200044F20040C5F60200006800F480710020FB
:10353000B0EB112F0CD0FFE7FDF752FD0999401AAF
:10354000032804D3FFE703208DF82F00D4E2E7E738
:10355000FFE7FFE7FFE70A980078000700284FD54C
:10356000FFE70A98406928B3FFE744F27441C5F6C3
:103570000201086840F001000860FDF731FD099084
:10358000FFE744F27440C5F60200006800F0020153
:103590000020B0EB510F0CD1FFE7FDF721FD099999
:1035A000401A032804D3FFE703208DF82F00A3E27D
:1035B000E7E724E044F27441C5F60201086820F010
:1035C00001000860FDF70CFD0990FFE744F274402C
:1035D000C5F60200006800F002010020B0EB510FB8
:1035E0000CD0FFE7FDF7FCFC0999401A032804D32F
:1035F000FFE703208DF82F007EE2E7E7FFE7FFE714
:103600000A980078800600284FD5FFE70A9880695D
:1036100028B3FFE744F20041C5F60201086840F410
:1036200080500860FDF7DCFC0990FFE744F20040A1
:10363000C5F60200006800F400510020B0EB513FD5
:103640000CD1FFE7FDF7CCFC0999401A032804D3FD
:10365000FFE703208DF82F004EE2E7E724E044F275
:103660000041C5F60201086820F480500860FDF7AB
:10367000B7FC0990FFE744F20040C5F6020000687D
:1036800000F400510020B0EB513F0CD0FFE7FDF7F4
:10369000A7FC0999401A032804D3FFE703208DF8FB
:1036A0002F0029E2E7E7FFE7FFE70A9800784007E5
:1036B000002840F1A780FFE744F60001C5F60201AB
:1036C000086840F480700860FDF78AFC0990FFE705
:1036D00044F60000C5F602000068C00500280CD4BE
:1036E000FFE7FDF77DFC0999401A652804D3FFE741
:1036F00003208DF82F00FFE1EAE7FFE70A988068D2
:10370000012809D1FFE744F27041C5F602010868BB
:1037100040F00100086031E00A98806868B9FFE76E
:1037200044F27041C5F60201086820F0010008600B
:10373000086820F0040008601FE00A9880680528E7
:103740000DD1FFE744F27041C5F60201086840F070
:1037500004000860086840F0010008600CE044F2D2
:103760007041C5F60201086820F001000860086891
:1037700020F004000860FFE7FFE7FFE7FFE70A9893
:103780008068F8B1FFE7FDF72BFC0990FFE744F2F2
:103790007040C5F60200006800F002010020B0EBA6
:1037A000510F0ED1FFE7FDF71BFC0999401A41F2BA
:1037B0008931884204D3FFE703208DF82F009BE175
:1037C000E5E71EE0FDF70CFC0990FFE744F27040CE
:1037D000C5F60200006800F002010020B0EB510FB6
:1037E0000ED0FFE7FDF7FCFB0999401A41F2893141
:1037F000884204D3FFE703208DF82F007CE1E5E742
:10380000FFE7FFE70A98406A002800F07181FFE7B0
:1038100044F21040C5F60200006800F03800182895
:1038200000F0E080FFE70A98406A022840F0B48088
:10383000FFE744F20041C5F60201086820F08070FD
:103840000860FDF7CDFB0990FFE744F20040C5F6A4
:103850000200006800F000710020B0EB516F0CD046
:10386000FFE7FDF7BDFB0999401A032804D3FFE7E2
:1038700003208DF82F003FE1E7E7FFE744F22841FE
:10388000C5F60201086840F2F33290430A9B9A6A37
:10389000DB6A42EA0312104308600A99086BD1F808
:1038A00034C08B6BCA6B01386FF35F204FF6006139
:1038B000CFF6FF7101EB4C2189B208440021CFF60D
:1038C000FF7101EB034101F4FE0108444FF07F4119
:1038D00001EB026101F0FE41084444F23041C5F6BB
:1038E00002010860FFE744F22C41C5F60201009195
:1038F000086820F00100086044F23442C5F6020274
:1039000010684FF6F87398430A9B9B6C40EAC3001B
:103910001060086820F00C000A9A126C10430860CE
:10392000086820F002000A9A526C10430860086888
:1039300040F480300860086840F40030086008688F
:1039400040F480200860086840F00100086044F2FC
:103950000041C5F60201086840F080700860FDF77C
:103960003FFB0990FFE744F20040C5F60200006803
:1039700000F000710020B0EB516F0CD1FFE7FDF7B4
:103980002FFB0999401A032804D3FFE703208DF881
:103990002F00B1E0E7E724E044F20041C5F6020160
:1039A000086820F080700860FDF71AFB0990FFE7B7
:1039B00044F20040C5F60200006800F000710020EB
:1039C000B0EB516F0CD0FFE7FDF70AFB0999401AE5
:1039D000032804D3FFE703208DF82F008CE0E7E7EE
:1039E000FFE784E044F22840C5F602000068089032
:1039F00044F23040C5F60200006807900A98406A19
:103A0000012837D0FFE7089800F003000A99896A77
:103A100088422FD1FFE7089800F47C710A98C06AA9
:103A2000B0EB111F26D1FFE707986FF35F200A99CB
:103A3000096B013988421DD1FFE7BDF81C100A98B7
:103A4000406B0138B0EB512F14D1FFE7079800F419
:103A5000FE010A98806B0138B0EB114F0AD1FFE7E5
:103A6000079800F0FE410A98C06B0138B0EB116F67
:103A700004D0FFE701208DF82F003DE044F23440F0
:103A8000C5F60200006880B2C00808900A98806CF1
:103A90000899884229D0FFE744F22C41C5F602017B
:103AA000086820F001000860FDF79AFA0990FFE726
:103AB000FDF796FA0999401A08B9FFE7F8E744F2CA
:103AC0003441C5F6020108684FF6F87290430A9A2D
:103AD000926C40EAC200086044F22C41C5F6020133
:103AE000086840F001000860FFE7FFE7FFE7FFE735
:103AF00000208DF82F00FFE79DF82F000CB080BD4F
:103B000080B586B00490049820B9FFE701208DF8B5
:103B100017003AE10498406A08B9FFE7FFE7049903
:103B2000002088620498006843F20001C4F2010199
:103B300088421BD0FFE70498006843F60001C4F2F6
:103B40000001884212D0FFE70498006843F6004164
:103B5000C4F20001884209D0FFE70498C068102829
:103B600004D3FFE701208DF817000EE1049802F05E
:103B7000BBFD02900498006843F20001C4F2010109
:103B8000884216D0FFE70498006843F60001C4F2AB
:103B9000000188420DD0FFE70498006843F6004119
:103BA000C4F20001884204D0FFE7029808281FD819
:103BB000FFE70498006843F20001C4F20101884263
:103BC00012D0FFE70498006843F60001C4F2000138
:103BD000884209D0FFE70498006843F60041C4F228
:103BE0000001884208D1FFE70298112804D3FFE7BB
:103BF00001208DF81700C8E0049890F8810040B9C2
:103C0000FFE70499002081F88000049800F0C4F8D0
:103C1000FFE70499022081F8810004980168086890
:103C200020F00100086004980068806800F4F81033
:103C3000039004988069B0F1806F1BD1FFE704986E
:103C40004068B0F5800F04D1FFE70498806B50B155
:103C5000FFE70498406868B9FFE70498806BB0F10B
:103C6000805F07D1FFE704980168086840F480503E
:103C70000860FFE7049880794006002810D5FFE728
:103C80000498C06807280BD3FFE704980068006811
:103C900020F48070049A1168126D1043086006E0E9
:103CA00004980168086820F480700860FFE7049BAE
:103CB0001968DA68D869D3F828C040EA0C00DDF842
:103CC0000CC040EA0C00DB6B184310438860049A78
:103CD0000192506B516A0843916B08439169084304
:103CE0001168D2F804C09368D2F810E040EA0E00E0
:103CF000D2F814E040EA0E00D2F820E040EA0E00CC
:103D000040EA0C00D2F84CC040EA0C001843936C17
:103D10001843926D1043C8600498406898B9FFE753
:103D2000049800688068012161F3CC200499096837
:103D30008860049800688068022161F34A20049931
:103D400009688860FFE704980168086D20F00100A9
:103D5000086504988079400600280BD5FFE7049891
:103D60000068C06820F00040049A1168526D10434A
:103D7000C860FFE704990020C1F88400049A01217B
:103D800082F881108DF81700FFE79DF8170006B044
:103D900080BD00000000000080B5B6B03590002066
:103DA0003490339032903190309002A8B821FCF7D3
:103DB000E5FA3598006843F20001C4F20101884237
:103DC0003DD1FFE7002003904FF4805102911990FC
:103DD00002A8FDF765FD18B1FFE7FCF7D5FEFFE788
:103DE000FFE744F2F040C5F60200016841F480515B
:103DF0000160006800F4805001900198FFE7FFE740
:103E000044F2E040C5F60200016841F002010160A1
:103E1000006800F0020000900098FFE73820309022
:103E2000022031900020329033900520349040F2EF
:103E30000040C5F6020030A9FCF7E6FEFFE736B009
:103E400080BD00000000000080B58AB00890079196
:103E5000ADF81A2005930898C16B012000EB5110B2
:103E6000ADF80A000898006830300190FDF7B8F806
:103E70000490089890F88100012804D0FFE7022000
:103E80008DF8270044E2079820B1FFE7BDF81A003B
:103E900020B9FFE701208DF8270039E2FFE70898F5
:103EA00090F88000012804D1FFE702208DF8270058
:103EB0002EE20899012081F88000FFE7FFE70899CA
:103EC000042081F8810008990020C1F88400079936
:103ED000089A5166BDF81A10089AA2F86810BDF841
:103EE0001A10089AA2F86A100899C8650899A1F8EA
:103EF00060000899A1F86200089908670899486766
:103F000008988068B0F5C02F07D1FFE708980168CE
:103F1000086820F40060086009E008980068C0683C
:103F2000022161F3524008990968C860FFE70898C8
:103F3000006840684FF6FF718843BDF81A100844C6
:103F400008990968486008980168086840F001000D
:103F5000086008984068B0F5800F07D1FFE708981F
:103F60000168086840F400700860FFE70898C068BE
:103F700010286CD3FFE7FFE70898B0F86A00002824
:103F800064D0FFE7089800684069039008980068CB
:103F90004069C00788B1FFE708980068006B08997E
:103FA000496E08600899486E043048660899B1F86F
:103FB0006A000138A1F86A0047E00898B0F86A0082
:103FC000BDF80A10884217DAFFE79DF80D000006D9
:103FD000002811D5FFE708980068006B0899496E22
:103FE00008600899486E043048660899B1F86A007C
:103FF0000138A1F86A0027E0FCF7F2FF0499401AA3
:104000000599884204D3FFE70598013018B9FFE706
:104010000598C0B9FFE7089802F0DAFA0899D1F8D4
:10402000840040F48070C1F884000899012081F870
:104030008100FFE70899002081F88000FFE7032056
:104040008DF8270064E1FFE7FFE795E746E1089870
:10405000C0680828C0F09280FFE7FFE70898B0F832
:104060006A00002800F08980FFE70898006840692E
:104070000390089800684069C00780B1FFE7019885
:1040800000880899496E08800899486E0230486691
:104090000899B1F86A000138A1F86A006CE0089844
:1040A000B0F86A00BDF80A1088421FDAFFE79DF8F1
:1040B0000D000006002819D5FFE70198008808992F
:1040C000496E08800899486E023048660198008859
:1040D0000899496E08800899486E02304866089928
:1040E000B1F86A000238A1F86A0044E00898B0F814
:1040F0006A00012816D1FFE79DF80D008006002810
:1041000010D5FFE7019800880899496E0880089942
:10411000486E023048660899B1F86A000138A1F883
:104120006A0027E0FCF75CFF0499401A0599884271
:1041300004D3FFE70598013018B9FFE70598C0B927
:10414000FFE7089802F044FA0899D1F8840040F497
:104150008070C1F884000899012081F88100FFE790
:104160000899002081F88000FFE703208DF82700E0
:10417000CEE0FFE7FFE7FFE770E7AEE0FFE7089874
:10418000B0F86A00002800F0A780FFE708980068F0
:1041900040690390089800684069C00790B1FFE744
:1041A0000898006890F830000899496E08700899DE
:1041B000486E013048660899B1F86A000138A1F8E4
:1041C0006A0088E00898B0F86A00BDF80A108842D2
:1041D00039DAFFE79DF80D000006002833D5FFE728
:1041E0000898006890F830000899496E087008999E
:1041F000486E013048660898006890F830000899C9
:10420000496E08700899486E013048660898006841
:1042100090F830000899496E08700899486E01308E
:1042200048660898006890F830000899496E087050
:104230000899486E013048660899B1F86A00043858
:10424000A1F86A0046E00898B0F86A00032818D878
:10425000FFE79DF80D0010F0600F12D0FFE70898FF
:10426000006890F830000899496E08700899486E07
:10427000013048660899B1F86A000138A1F86A006F
:1042800027E0FCF7ADFE0499401A0599884204D353
:10429000FFE70598013018B9FFE70598C0B9FFE7B7
:1042A000089802F095F90899D1F8840040F48070DC
:1042B000C1F884000899012081F88100FFE708997E
:1042C000002081F88000FFE703208DF827001FE021
:1042D000FFE7FFE7FFE752E7FFE7FFE7089802F095
:1042E00077F90899012081F88100FFE708990020FB
:1042F00081F88000FFE70898D0F8840020B1FFE73C
:1043000001208DF8270003E000208DF82700FFE74B
:104310009DF827000AB080BD80B588B00690059151
:10432000ADF8122003930698006820300290FCF745
:1043300057FE0190069890F88100012804D0FFE70D
:1043400002208DF81F00D5E1059820B1FFE7BDF8E8
:10435000120020B9FFE701208DF81F00CAE1FFE736
:10436000069890F88000012804D1FFE702208DF81C
:104370001F00BFE10699012081F88000FFE7FFE7F9
:104380000699032081F8810006990020C1F8840075
:104390000599069AD165BDF81210069AA2F8601028
:1043A000BDF81210069AA2F862100699486606999E
:1043B000A1F868000699A1F86A000699486706996D
:1043C000086706988068B0F5C02F07D1FFE7069808
:1043D0000168086840F40060086009E00698006819
:1043E000C068012161F3524006990968C860FFE77F
:1043F0000698006840684FF6FF718843BDF81210B8
:10440000084406990968486006980168086840F001
:104410000100086006984068B0F5800F07D1FFE7FB
:1044200006980168086840F400700860FFE7069885
:10443000C068102848D3FFE7FFE70698B0F862008D
:10444000002840D0FFE706980068406980070028F0
:1044500010D5FFE706980168C06D006808620699EC
:10446000C86D0430C8650699B1F862000138A1F83A
:10447000620027E0FCF7B4FD0199401A03998842D5
:1044800004D3FFE70398013018B9FFE70398C0B9D8
:10449000FFE7069802F09CF80699D1F8840040F4F2
:1044A0008070C1F884000699012081F88100FFE73F
:1044B0000699002081F88000FFE703208DF81F0097
:1044C00018E1FFE7B9E7E8E00698C068082863D379
:1044D000FFE7FFE70698B0F8620000285BD0FFE72F
:1044E000069800684069800700282BD5FFE70698EA
:1044F000B0F86200022814D3FFE70698C06B80B1C1
:10450000FFE706980168C06D006808620699C86DEB
:104510000430C8650699B1F862000238A1F862005B
:104520000FE00698C06D0088029908800699C86D52
:104530000230C8650699B1F862000138A1F862003E
:10454000FFE727E0FCF74CFD0199401A03998842E8
:1045500004D3FFE70398013018B9FFE70398C0B907
:10456000FFE7069802F034F80699D1F8840040F489
:104570008070C1F884000699012081F88100FFE76E
:104580000699002081F88000FFE703208DF81F00C6
:10459000B0E0FFE79EE77FE0FFE70698B0F8620033
:1045A000002878D0FFE70698006840698007002857
:1045B00048D5FFE70698B0F86200042815D3FFE756
:1045C0000698C06B412810D3FFE706980168C06DBC
:1045D000006808620699C86D0430C8650699B1F88C
:1045E00062000438A1F862002BE00698B0F862007F
:1045F000022814D3FFE70698C06B80B1FFE7069846
:10460000C06D0088029908800699C86D0230C8659F
:104610000699B1F862000238A1F8620010E006982D
:104620000168C06D007881F820000699C86D0130DE
:10463000C8650699B1F862000138A1F86200FFE789
:10464000FFE727E0FCF7CCFC0199401A0399884268
:1046500004D3FFE70398013018B9FFE70398C0B906
:10466000FFE7069801F0B4FF0699D1F8840040F402
:104670008070C1F884000699012081F88100FFE76D
:104680000699002081F88000FFE703208DF81F00C5
:1046900030E0FFE781E7FFE7FFE70698039B01991A
:1046A0006A4611600821002202F04AF840B1FFE793
:1046B0000699D1F8840040F02000C1F88400FFE79B
:1046C000069801F085FF0699012081F88100FFE737
:1046D0000699002081F88000FFE70698D0F8840052
:1046E00020B1FFE701208DF81F0003E000208DF8C6
:1046F0001F00FFE79DF81F0008B080BD000000000C
:1047000080B582B00190019802F066F802B080BDD9
:1047100081B0009001B0704781B0009001B0704747
:1047200081B0009001B0704784B0029001910020E8
:104730000090FFE7029890F83C00012804D1FFE7C1
:1047400002208DF80F0082E00299012081F83C00E0
:10475000FFE7FFE7009820F0FF000199C9680843D0
:104760000090009820F440700199896808430090F7
:10477000009820F4806001994968084300900098EF
:1047800020F400600199096808430090009820F423
:1047900080500199096908430090009820F4005066
:1047A0000199496908430090009820F480400199DC
:1047B000096B08430090009820F4702001998969E2
:1047C00040EA01400090009820F080500199C969AA
:1047D00008430090029800680021C4F20101884259
:1047E00009D0FFE70298006840F20041C4F20101DD
:1047F00088421ED1FFE7009820F470000199896A71
:1048000040EA01500090009820F080700199096AF8
:1048100008430090009820F000700199496A08430D
:104820000090009820F000500199C96A0843009058
:10483000FFE70098029909684864FFE702990020A1
:1048400081F83C00FFE700208DF80F00FFE79DF89E
:104850000F0004B07047000085B003900291FFE79D
:10486000039890F83C00012804D1FFE702208DF85E
:104870001300ABE00399012081F83C00FFE7FFE75C
:104880000399022081F83D00039800684068019078
:104890000398006880680090039800680021C4F2C3
:1048A0000101884209D0FFE70398006840F2004107
:1048B000C4F2010188420AD1FFE7019820F4700098
:1048C000019002984168019808430190FFE7019820
:1048D00020F070000190029801680198084301904F
:1048E0000198039909684860039800680021C4F2A0
:1048F000010188424ED0FFE703980068B0F1804F75
:1049000048D0FFE70398006840F20041C4F200017C
:1049100088423FD0FFE70398006840F60001C4F2E8
:104920000001884236D0FFE70398006840F6004156
:10493000C4F2000188422DD0FFE70398006840F2DE
:104940000041C4F20101884224D0FFE703980068C7
:1049500041F60001C4F2000188421BD0FFE7039832
:10496000006844F20001C4F20101884212D0FFE75E
:10497000039800684EF20001C4F20001884209D099
:10498000FFE7039800684EF20041C4F2000188423C
:104990000ED1FFE7009820F0800000900298816817
:1049A0000098084300900098039909688860FFE721
:1049B0000399012081F83D00FFE70399002081F869
:1049C0003C00FFE700208DF81300FFE79DF813007F
:1049D00005B070470000000080B58AB008900791CC
:1049E000079828B9FFE7089890F8440005901CE064
:1049F0000798042805D1FFE7089890F8450004902F
:104A000010E00798082805D1FFE7089890F84600BD
:104A1000039004E0089890F847000390FFE703989C
:104A20000490FFE704980590FFE70598012804D05B
:104A3000FFE701208DF82700ACE0079828B9FFE7D1
:104A40000899022081F844001EE00798042806D146
:104A5000FFE70899022081F84500029012E00798CC
:104A6000082806D1FFE70899022081F84600019046
:104A700005E00899022081F847000190FFE70198BE
:104A80000290FFE70298FFE7089800680799042260
:104A900002F0F6F808980168486C40F40040486459
:104AA000089800680021C4F2010188424ED0FFE757
:104AB00008980068B0F1804F48D0FFE70898006878
:104AC00040F20041C4F2000188423FD0FFE708985D
:104AD000006840F60001C4F20001884236D0FFE7CA
:104AE0000898006840F60041C4F2000188422DD0C9
:104AF000FFE70898006840F20041C4F201018842D3
:104B000024D0FFE70898006841F60001C4F20001D4
:104B100088421BD0FFE70898006844F20001C4F205
:104B20000101884212D0FFE7089800684EF20001A8
:104B3000C4F20001884209D0FFE7089800684EF2ED
:104B40000041C4F20001884219D1FFE708980068CB
:104B500080680721C0F201010840069006980628E7
:104B60000CD0FFE70698B0F5803F07D0FFE7089824
:104B70000168086840F001000860FFE706E0089857
:104B80000168086840F001000860FFE700208DF828
:104B90002700FFE79DF827000AB080BD0000000055
:104BA00080B582B00090009820B9FFE701208DF811
:104BB000070045E0009890F83D0040B9FFE70099F4
:104BC000002081F83C00009800F03EF8FFE70099D3
:104BD000022081F83D00009951F8040B01F050FFCC
:104BE0000099012081F84800FFE70099012081F831
:104BF0003E00009981F83F00009981F8400000993B
:104C000081F84100009981F84200009981F8430041
:104C1000FFE7FFE70099012081F84400009981F83F
:104C20004500009981F84600009981F84700FFE7A8
:104C30000099012081F83D0000208DF80700FFE772
:104C40009DF8070002B080BD80B584B00390039842
:104C5000006840F20041C4F20101884219D1FFE727
:104C6000FFE744F2F040C5F60200016841F002019E
:104C70000160006800F0020002900298FFE72C201B
:104C8000019000221146FCF7D3FA0198FCF7C4FA10
:104C9000FFE704B080BD000083B00190019890F858
:104CA0003D00012804D0FFE701208DF80B0083E0D0
:104CB0000199022081F83D0001980168C86840F020
:104CC0000100C860019800680021C4F20101884217
:104CD0004ED0FFE701980068B0F1804F48D0FFE761
:104CE0000198006840F20041C4F2000188423FD0C0
:104CF000FFE70198006840F60001C4F20001884215
:104D000036D0FFE70198006840F60041C4F2000188
:104D100088422DD0FFE70198006840F20041C4F2BC
:104D20000101884224D0FFE70198006841F60001A4
:104D3000C4F2000188421BD0FFE70198006844F2EA
:104D40000001C4F20101884212D0FFE70198006817
:104D50004EF20001C4F20001884209D0FFE7019839
:104D600000684EF20041C4F20001884219D1FFE709
:104D70000198006880680721C0F201010840009096
:104D8000009806280CD0FFE70098B0F5803F07D0C8
:104D9000FFE701980168086840F001000860FFE73C
:104DA00006E001980168086840F001000860FFE72C
:104DB00000208DF80B00FFE79DF80B0003B0704753
:104DC00080B586B00490039100208DF80B00FFE7BA
:104DD000049890F83C00012804D1FFE702208DF8E8
:104DE0001700D1E00499012081F83C00FFE7FFE7BC
:104DF0000499022081F83D000498006880680190C1
:104E000001984FF68871CFF6CE7108400190019855
:104E100020F47F4001900198049909688860039804
:104E200000680090002800F09580FFE700981028A7
:104E300000F09080FFE70098202800F08B80FFE7CB
:104E40000098302800F08680FFE70098402874D052
:104E5000FFE70098502856D0FFE7009860285FD001
:104E6000FFE7009870282AD0FFE70098B0F5805F30
:104E700024D0FFE70098B0F5005F35D0FFE7009839
:104E8000B0F5801F66D0FFE70098B0F1101F61D029
:104E9000FFE700982021C0F2100188425AD0FFE7B6
:104EA00000983021C0F21001884253D0FFE70098EB
:104EB0004021C0F2100188424CD052E055E00498E5
:104EC0000068039B5A689968DB6801F0F5FE049856
:104ED000006880680190019840F077000190019887
:104EE00004990968886040E004980068039B5A6848
:104EF0009968DB6801F0E0FE04980168886840F476
:104F00008040886031E004980068039A5168D26854
:104F100002F062FA04980068502101F0E9FE24E0F2
:104F200004980068039A5168D26802F07DFA0498E8
:104F30000068602101F0DCFE17E004980068039A25
:104F40005168D26802F048FA04980068402101F0E4
:104F5000CFFE0AE0049800680399096801F0C8FED2
:104F600003E001208DF80B00FFE70499012081F890
:104F70003D00FFE70499002081F83C00FFE79DF821
:104F80000B008DF81700FFE79DF8170006B080BDF5
:104F900081B0009001B0704780B584B00390039851
:104FA0000068C068029003980068006901909DF84D
:104FB00004008007002824D5FFE79DF8080080073B
:104FC00000281DD5FFE7039801686FF00200086113
:104FD000039901200877039800688069800720B151
:104FE000FFE70398FFF7D4FF06E0039800F074F999
:104FF000039800F0A5FAFFE7039900200877FFE780
:10500000FFE79DF804004007002825D5FFE79DF83D
:105010000800400700281ED5FFE7039801686FF0DD
:1050200004000861039902200877039800688069EA
:1050300010F4407F04D0FFE70398FFF7A9FF06E0D4
:10504000039800F049F9039800F07AFAFFE7039912
:1050500000200877FFE7FFE79DF80400000700281D
:1050600024D5FFE79DF80800000700281DD5FFE7BD
:10507000039801686FF0080008610399042008771D
:1050800003980068C069800720B1FFE70398FFF725
:105090007FFF06E0039800F01FF9039800F050FA34
:1050A000FFE7039900200877FFE7FFE79DF804007A
:1050B000C006002825D5FFE79DF80800C006002897
:1050C0001ED5FFE7039801686FF01000086103998F
:1050D0000820087703980068C06910F4407F04D066
:1050E000FFE70398FFF754FF06E0039800F0F4F899
:1050F000039800F025FAFFE7039900200877FFE7FF
:10510000FFE79DF80400C00778B1FFE79DF80800AD
:10511000C00748B1FFE7039801686FF0010008611C
:10512000039800F065FBFFE7FFE7019800F08000BF
:10513000802806D0FFE79DF805008006002810D5DE
:10514000FFE79DF808000006002809D5FFE703984F
:1051500001686FF4025008610398FFF7DDFAFFE77A
:10516000FFE79DF80500C00780B1FFE79DF8080044
:105170000006002809D5FFE7039801686FF48070E6
:1051800008610398FFF7C4FAFFE7FFE79DF8040002
:105190004006002810D5FFE79DF8080040060028CB
:1051A00009D5FFE7039801686FF040000861039894
:1051B00000F0A6FBFFE7FFE79DF80400800600284B
:1051C00010D5FFE79DF808008006002809D5FFE705
:1051D000039801686FF0200008610398FFF7A0FAB8
:1051E000FFE7FFE704B080BD80B58EB00D900020D2
:1051F0000C900B900A90099008900D98006840F26E
:105200000041C4F20101884262D1FFE7FFE744F2A6
:10521000E040C5F60200016841F00101016000684C
:1052200000F0010007900798FFE7FFE744F2E04035
:10523000C5F60200016841F002010160006800F05B
:10524000020006900698FFE7FFE744F2E040C5F64B
:105250000200016841F004010160006800F00400F0
:1052600005900598FFE780200890022001900990A2
:10527000002002900A900B90032003900C900020D5
:10528000C5F6020008A90491FBF7BEFC019B029A37
:1052900003980499089009930A920B920C9040F29B
:1052A0000040C5F60200FBF7AFFC019B029A039891
:1052B00004994FF4E07CCDF820C009930A920B9238
:1052C0000C9040F60000C5F60200FBF79DFCFFE7DE
:1052D0000EB080BD0000000081B0009001B07047AA
:1052E00080B586B004900391029200208DF80700EB
:1052F000FFE7049890F83C00012804D1FFE7022062
:105300008DF81700C0E00499012081F83C00FFE708
:10531000FFE702980090142800F2A7800099DFE8C8
:1053200001F00BA4A4A424A4A4A43EA4A4A457A460
:10533000A4A471A4A4A48A0004980068039901F0AD
:10534000EFFC04980168886940F0080088610498BF
:105350000168886920F00400886103980269049854
:10536000016888691043886183E0049800680399A4
:1053700001F07EFD04980168886940F4006088614E
:1053800004980168886920F4806088610398026944
:1053900004980168886940EA0220886169E00498FD
:1053A0000068039901F01CFE04980168C86940F088
:1053B0000800C86104980168C86920F00400C86149
:1053C0000398026904980168C8691043C86150E0F5
:1053D00004980068039901F0BBFE04980168C8694D
:1053E00040F40060C86104980168C86920F48060D6
:1053F000C8610398026904980168C86940EA0220FC
:10540000C86136E004980068039901F011FF049820
:105410000168486D40F00800486504980168486DCF
:1054200020F0040048650398026904980168486DFB
:10543000104348651DE004980068039901F060FF7F
:1054400004980168486D40F400604865049801685C
:10545000486D20F4806048650398026904980168EB
:10546000486D40EA0220486503E001208DF80700FE
:10547000FFE7FFE70499002081F83C00FFE79DF873
:1054800007008DF81700FFE79DF8170006B080BDF4
:1054900080B582B00090009820B9FFE701208DF818
:1054A000070045E0009890F83D0040B9FFE70099FB
:1054B000002081F83C00009800F03EF8FFE70099DA
:1054C000022081F83D00009951F8040B01F0D8FA50
:1054D0000099012081F84800FFE70099012081F838
:1054E0003E00009981F83F00009981F84000009942
:1054F00081F84100009981F84200009981F8430049
:10550000FFE7FFE70099012081F84400009981F846
:105510004500009981F84600009981F84700FFE7AF
:105520000099012081F83D0000208DF80700FFE779
:105530009DF8070002B080BD81B0009001B07047B7
:1055400081B0009001B0704780B590B00E900D9181
:105550000D9828B9FFE70E9890F83E000B9034E0C4
:105560000D98042805D1FFE70E9890F83F000A90A7
:1055700028E00D98082805D1FFE70E9890F8400024
:1055800009901CE00D980C2805D1FFE70E9890F8C3
:105590004100089010E00D98102805D1FFE70E9803
:1055A00090F84200079004E00E9890F843000790AE
:1055B000FFE707980890FFE708980990FFE7099828
:1055C0000A90FFE70A980B90FFE70B98012804D098
:1055D000FFE701208DF83F0003E10D9828B9FFE7B0
:1055E0000E99022081F83E0038E00D98042806D17B
:1055F000FFE70E99022081F83F0006902CE00D98FD
:10560000082806D1FFE70E99022081F84000059096
:105610001FE00D980C2806D1FFE70E99022081F8B3
:105620004100049012E00D98102806D1FFE70E9972
:10563000022081F84200039005E00E99022081F8D3
:1056400043000390FFE703980490FFE70498059058
:10565000FFE705980690FFE70698FFE70E980068B9
:105660000D990122019201F0EFFA01980E99096853
:105670000022C4F20102914202902DD0FFE70E9861
:105680000168012040F20042C4F2010291420290FE
:1056900022D0FFE70E980168012044F20002C4F214
:1056A00001029142029017D0FFE70E980168012095
:1056B00044F20042C4F20102914202900CD0FFE792
:1056C0000E9800684BF60001CBF6FE710844B0FA64
:1056D00080F040090290FFE70298C00738B1FFE769
:1056E0000E980168486C40F400404864FFE70E984B
:1056F00000680021C4F2010188424ED0FFE70E98F5
:105700000068B0F1804F48D0FFE70E98006840F283
:105710000041C4F2000188423FD0FFE70E980068C4
:1057200040F60001C4F20001884236D0FFE70E982F
:10573000006840F60041C4F2000188422DD0FFE726
:105740000E98006840F20041C4F20101884224D062
:10575000FFE70E98006841F60001C4F2000188429C
:105760001BD0FFE70E98006844F20001C4F201016B
:10577000884212D0FFE70E9800684EF20001C4F292
:105780000001884209D0FFE70E9800684EF2004100
:10579000C4F20001884219D1FFE70E9800688068C2
:1057A0000721C0F2010108400C900C9806280CD08B
:1057B000FFE70C98B0F5803F07D0FFE70E9801682F
:1057C000086840F001000860FFE706E00E980168F5
:1057D000086840F001000860FFE700208DF83F00F6
:1057E000FFE79DF83F0010B080BD00000000000002
:1057F00080B584B003900398006840F20041C4F281
:105800000101884275D1FFE740F2BC10C2F20040AE
:10581000029090ED000A40F2C010C2F200400090E9
:1058200040F2CC11C2F2004102F01EFE009840F29C
:105830004001C2F2004101919FED2F0A02F084FE67
:10584000DDF804C002989CED000A40F22C41C4F23D
:10585000010191ED001AB8EE411A20EE010ABCEEEA
:10586000C00A40F23442C4F2010282ED000A9CED0B
:10587000010A91ED001AB8EE411A20EE010ABCEEC1
:10588000C00A40F23843C4F2010383ED000A9CEDE4
:10589000020A91ED001AB8EE411A20EE010ABCEEA0
:1058A000C00A40F23C41C4F2010181ED000AD2F885
:1058B00000C040F23402C2F20042C2F800C01B68CD
:1058C00053600968916090ED000A40F2B811C2F28D
:1058D000004191ED001A9FED092A01EE020A80EDC8
:1058E000000A40F2B411C2F20041086801300860B9
:1058F000FFE704B080BD00BF0000CA4217B7D1382F
:1059000081B0009001B0704783B00190FFE701982B
:1059100090F88400012804D1FFE702208DF80B00E5
:105920002CE00199012081F88400FFE7FFE701994D
:105930002420C1F888000198006800680090019850
:105940000168086820F001000860009820F000500D
:105950000090019900204866009801990968086044
:1059600001992020C1F88800FFE70199002081F803
:105970008400FFE700208DF80B00FFE79DF80B0087
:1059800003B070470000000080B584B00290019120
:10599000FFE7029890F88400012804D1FFE7022075
:1059A0008DF80F0032E00299012081F88400FFE7B2
:1059B000FFE702992420C1F8880002980068006877
:1059C000009002980168086820F0010008600298C1
:1059D0000068806820F060600199084302990968B6
:1059E0008860029801F04CFD0098029909680860EF
:1059F00002992020C1F88800FFE70299002081F871
:105A00008400FFE700208DF80F00FFE79DF80F00EE
:105A100004B080BD0000000080B584B00290019108
:105A2000FFE7029890F88400012804D1FFE70220E4
:105A30008DF80F0032E00299012081F88400FFE721
:105A4000FFE702992420C1F88800029800680068E6
:105A5000009002980168086820F001000860029830
:105A60000068806820F06040019908430299096845
:105A70008860029801F004FD0098029909680860A6
:105A800002992020C1F88800FFE70299002081F8E0
:105A90008400FFE700208DF80F00FFE79DF80F005E
:105AA00004B080BD0000000080B582B00090009876
:105AB00020B9FFE701208DF8070046E000988069D3
:105AC00008B1FFE700E0FFE70098D0F8880040B990
:105AD000FFE70099002081F88400009800F03CF86E
